:020000040800F2
:100000009806002089010008110F00088B080008DD
:100010000D0F0008CD030008772000080000000045
:10002000000000000000000000000000C5170008EC
:100030006105000800000000ED150008451A0008E1
:10004000A3010008A3010008A3010008A301000800
:10005000A3010008A3010008A3010008A3010008F0
:10006000A3010008A3010008A3010008A3010008E0
:10007000A3010008A3010008A3010008A3010008D0
:10008000A3010008A3010008A3010008A3010008C0
:10009000A3010008A3010008A3010008A9050008A6
:1000A000A3010008A3010008A3010008A3010008A0
:1000B000A3010008A3010008A3010008A301000890
:1000C000A3010008A3010008A3010008A301000880
:1000D000A3010008651E0008A3010008A301000891
:1000E000A3010008A3010008A301000800F002F822
:1000F00000F03AF80AA090E8000C82448344AAF188
:100100000107DA4501D100F02FF8AFF2090EBAE885
:100110000F0013F0010F18BFFB1A43F0010318473B
:100120007039000090390000103A24BF78C878C1B7
:10013000FAD8520724BF30C830C144BF04680C60ED
:10014000704700000023002400250026103A28BF35
:1001500078C1FBD8520728BF30C148BF0B60704739
:100160001FB51FBD10B510BD00F044F81146FFF7D4
:10017000F7FF02F0A5FA00F062F803B4FFF7F2FF10
:1001800003BC00F065F800000948804709480047B3
:10019000FEE7FEE7FEE7FEE7FEE7FEE7FEE7FEE737
:1001A000FEE7FEE704480549054A064B7047000094
:1001B000491A0008ED000008980000209806002069
:1001C000980200209802002070477047704710B5D1
:1001D00000F008F8006810BD10B5044600F002F801
:1001E000046010BD00487047380000200048704788
:1001F000380000207546FFF7F9FFAE460500694656
:10020000534620F00700854618B020B5FFF7CAFF17
:10021000BDE820404FF000064FF000074FF0000807
:100220004FF0000B21F00701AC46ACE8C009ACE888
:10023000C009ACE8C009ACE8C0098D46704710B5EC
:100240000446AFF300802046BDE81040FFF795BF9D
:1002500001491820ABBEFEE72600020070470000EF
:100260002DE9FE4F1E20029047484849484B494A15
:10027000CDE900104849494800F010FD4548B0F963
:10028000000002F095FC804689464348B0F9000022
:1002900002F08EFC824642464B4602F075F8064656
:1002A0003F4A404B02F09CFC044602F047FA3E49AC
:1002B00008603949B1F900104943364AB2F90020C3
:1002C000344BB3F9003002FB031002F071FC064618
:1002D00002F00EFA804689463048B0F900004042EC
:1002E00002F066FC42464B46CDE9000102F04CF8B4
:1002F00004462B4A2B4B02F073FC824602F01EFA96
:100300002A49086000212848006802F04FFF05D202
:100310002548006880F000402349086000212348F8
:10032000006802F043FF05D22048006880F00040DA
:100330001E4908601E491C48006802F0B6FF05D33C
:100340001B491A48006802F0B0FF12D21948007821
:10035000012816D118A20121022000F055FF072024
:1003600017490870487001F0B9FA00201149087067
:1003700007E014A20121022000F046FF01200D49F0
:100380000870BDE8FE8F00002E0000202C00002029
:100390002A00002028000020260000202400002041
:1003A000E79AD56194A94C40180000201C00002059
:1003B0000000F0411700002046616C6C696E670018
:1003C000310000204E6F726D616C200000BFFEE7AF
:1003D00010B500F06DFB4F49087008460078012801
:1003E00007D101F01FF84C480078401C4A490870BA
:1003F00022E048480078022807D101F04DF847482C
:100400000078401C4549087016E0424800780328EF
:1004100007D101F079F842480078401C4049087043
:100420000AE03C480078042806D101F0A7F83D48CE
:100430000078401C3B49087037480078052816DBD7
:1004400000203549087038A20121022000F0DCFEAE
:100450004FF47A7000F085F835A20121022000F0F7
:10046000D3FE072037490870487001F037FA2B484F
:100470000078052816DB00202849087032A20121E7
:10048000022000F0C1FE4FF47A7000F06AF828A252
:100490000121022000F0B8FE07202A4908704870A8
:1004A00001F01CFA1E480078052816DB00201C49C4
:1004B000087027A20121022000F0A6FE4FF47A70F6
:1004C00000F04FF81AA20121022000F09DFE072043
:1004D0001C490870487001F001FA1248007805289C
:1004E00016DB00200F4908701BA20121022000F03A
:1004F0008BFE4FF47A7000F034F80DA20121022037
:1005000000F082FE07200F490870487001F0E6F9FC
:1005100010BD000014000020200000202100002059
:100520002200002023000020522046554C4C0000A1
:1005300020202020202020202020202020202020BB
:1005400000000000310000204B2046554C4C0000BC
:10055000482046554C4C00004F2046554C4C00005E
:10056000704700B5034603E04FF47A7000F005F8D9
:10057000181EA3F10103F7D100BD00EBC001C900B3
:100580004FF0E0225161002191610521116100BF0E
:100590004FF0E021096901F480310029F8D00421ED
:1005A0004FF0E0221161704710B5202000F052F8A2
:1005B00001280BD12021224800F055F910B9012063
:1005C00020490870202000F03FF833E0402000F080
:1005D00041F801280BD14021194800F044F910B925
:1005E000022018490870402000F02EF822E08020F8
:1005F00000F030F801280BD18021114800F033F9C8
:1006000010B903200F490870802000F01DF811E098
:100610004FF4807000F01EF801280BD10102084849
:1006200000F021F910B90420064908704FF48070D9
:1006300000F00AF80348007801F066FF10BD0000E2
:1006400000080140300000200149086070470000A8
:1006500014040140014600200022074B1B6803EAF6
:100660000102054B14331B680B4013B10AB1012082
:1006700000E00020704700000004014000212349F1
:100680008279002A3AD00A46126803689A430B46D8
:100690001A600A1D126803689A430B1D1A600279DA
:1006A00011440A6803681A430A60184A083212683B
:1006B00003689A43154B08331A601A1D12680368C1
:1006C0009A43124B0C331A604279102A0ED11A1F2A
:1006D000126803681A430D4B08331A601A1D12681A
:1006E00003681A43094B0C331A600DE0074942793D
:1006F00011440A6803681A430A6005E0027911444C
:100700000A6803689A430A607047000000040140C9
:1007100030B500228B071C0F0F2303FA04F20B4B9A
:100720008C1053F824309343084C8D1044F8253036
:1007300023468C1053F824308C07240F00FA04F45D
:100740002343024C8D1044F8253030BD0800014091
:100750002DE9F04102460025002600200023002458
:10076000002791F803C00CF00F0591F803C00CF0BE
:10077000100CBCF1000F03D091F802C04CEA050543
:1007800091F800C0BCF1000F31D0146800202BE0BC
:100790004FF0010C0CFA00F3B1F800C00CEA0306AC
:1007A0009E4220D183004FF00F0C0CFA03F7BC439C
:1007B00005FA03FC4CEA040491F803C0BCF1280FCD
:1007C00006D14FF0010C0CFA00FCC2F814C00AE08C
:1007D00091F803C0BCF1480F05D14FF0010C0CFAA1
:1007E00000FCC2F810C0401C0828D1D31460B1F836
:1007F00000C0BCF1FF0F34DD546800202EE000F192
:10080000080C4FF0010808FA0CF3B1F800C00CEA2C
:1008100003069E4221D183004FF00F0C0CFA03F720
:10082000BC4305FA03FC4CEA040491F803C0BCF194
:10083000280F05D100F1080C08FA0CF8C2F8148052
:1008400091F803C0BCF1480F07D100F1080C4FF03C
:10085000010808FA0CF8C2F81080401C0828CED312
:100860005460BDE8F0810246002093680B400BB154
:10087000012000E00020704741617047016170472E
:100880000AB1016100E04161704700BFFEE721B19C
:10089000028842F48062028004E002884FF6FF334F
:1008A0001A400280704770B50246002400250023DC
:1008B0000020958A138B1B0445EA030626F07F442B
:1008C00004EA01068E4201D1012000E0002070BD43
:1008D00021B1028842F00102028004E002884FF652
:1008E000FE731A400280704721B1028842F4807280
:1008F000028004E002884FF6FF631A4002807047CE
:1009000021B1028842F40072028004E002884FF6AE
:10091000FF531A40028070472DE9F04385B004462A
:100920000D460026B1460427DFF8CC80A6884FF696
:10093000C0700640684600F07BFEDDF808802F4856
:10094000B8FBF0F01FFA80F946EA0906A680208875
:100950004FF6FE7108402080002629492868884209
:100960000CD828684000B8FBF0F087B2042F00DAFA
:1009700004273E4309F10100208427E0E8884BF674
:10098000FF71884206D1286800EB4000B8FBF0F008
:1009900087B209E0286800EBC00101EB0010B8FB4A
:1009A000F0F087B247F48047C7F30B0008B947F06F
:1009B000010747F4004006434FF4967009FB00F02E
:1009C0004FF47A7190FBF1F0401C2084A6832088BC
:1009D00040F00100208026884FF6F5300640A888B8
:1009E0006989084306432680A8892989084320810C
:1009F00005B0BDE8F083000000127A0040420F000D
:100A0000A08601000146088AC0B2704712B141F0C9
:100A1000010102E04FF6FE73194001827047018226
:100A2000704700001FB50121042000F0F1FD0121F5
:100A3000084600F0EDFD48208DF80F004FF4F070EF
:100A4000ADF80C0003208DF80E0003A91748FFF73E
:100A50007FFE07210020FFF75BFE06210020FFF745
:100A600057FE05210020FFF753FE08210020FFF765
:100A70004FFE4FF4F070019001208DF80A00002025
:100A80008DF8080010208DF8090001A8FFF7F6FD89
:100A900017208DF8000001208DF803008DF801006B
:100AA0008DF80200684600F035FA1FBD00080140CD
:100AB00010B500244FF480512B48FFF7D4FE78B9CD
:100AC0001420FFF74EFD00BF4FF480512648FFF77A
:100AD000CAFE0028F8D01420FFF743FD012440E0AF
:100AE0004FF400512048FFF7BEFE78B91420FFF7FD
:100AF00038FD00BF4FF400511B48FFF7B4FE00283B
:100B0000F8D01420FFF72DFD02242AE04FF4804195
:100B10001548FFF7A8FE78B91420FFF722FD00BFA3
:100B20004FF480411048FFF79EFE0028F8D01420B3
:100B3000FFF717FD032414E04FF400410A48FFF7C4
:100B400092FE70B91420FFF70CFD00BF4FF4004176
:100B50000548FFF788FE0028F8D01420FFF701FDB4
:100B60000424204610BD0000000C014008B54820B8
:100B70008DF803004FF47040ADF8000003208DF8AD
:100B800002000121082000F043FD69460148FFF7FB
:100B9000DFFD08BD000C014010B502210148FFF740
:100BA0006DFE10BD000C014010B502210148FFF799
:100BB00063FE10BD000C014008B510208DF8030045
:100BC0000320ADF800008DF802000121082000F09C
:100BD0001FFD69460348FFF7BBFD03210148FFF7EE
:100BE0004DFE08BD000C014010B54FF40041074810
:100BF000FFF739FE0649087008460078012803D13E
:100C000000200870012010BD0020FCE70008014012
:100C10003700002008B50121082000F0F9FC482029
:100C20008DF803004FF40040ADF8000003208DF86C
:100C3000020069460148FFF78BFD08BD000801402E
:100C400010B5FFF7E7FFFFF7CFFF01280FD11148DD
:100C5000007801280BD1FFF7A7FF00200D4908708D
:100C600005200D490870487000F038FE10E0FFF7CD
:100C7000BBFF68B90748007850B9012005490870E2
:100C8000FFF78AFF062004490870487000F026FE2E
:100C900010BD000016000020310000202DE9F05F9B
:100CA00006460F4690469946DDE90AAB3B2000F028
:100CB0009DF804463C2000F099F8054645EA0420DA
:100CC00000B230803D2000F091F804463E2000F054
:100CD0008DF8054645EA042000B238803F2000F038
:100CE00085F80446402000F081F8054645EA0420D6
:100CF00000B2A8F80000432000F078F80446442031
:100D000000F074F8054645EA042000B2A9F8000096
:100D1000452000F06BF80446462000F067F80546D1
:100D200045EA042000B2AAF80000472000F05EF86F
:100D30000446482000F05AF8054645EA042000B26F
:100D4000ABF80000BDE8F09F00B585B00121880533
:100D500000F04EFC0121082000F05AFC1C208DF808
:100D600013004FF44060ADF8100003208DF812001E
:100D700004A91C48FFF7ECFC0020ADF804004CF27D
:100D8000503000904BF6FF70ADF806004FF48060D5
:100D9000ADF80A000001ADF80C000020ADF8080025
:100DA00069461148FFF7B8FD01210F48FFF790FD94
:100DB00001216B2000F078F800216C2000F074F81D
:100DC0000921192000F070F806211A2000F06CF8B3
:100DD00010211B2000F068F818211C2000F064F896
:100DE00005B000BD000C01400058004070B504463D
:100DF00001212148FFF778FD20491F4800F042F803
:100E00000022D0211C48FFF701FE1D491A4800F0BE
:100E100039F821461848FFF702FE1949891C16487F
:100E200000F030F801211448FFF75EFD1349124825
:100E300000F028F80122D0210F48FFF7E7FD0F4905
:100E4000491C0D4800F01EF800210B48FFF71FFD5C
:100E500001210948FFF754FD08493F31064800F0D9
:100E600011F80548FFF7CEFD054601210248FFF7BE
:100E70000EFD284670BD0000005800400100030030
:100E80008200070070B505460E4642F2107402E07B
:100E9000641E04B905E031462846FFF704FD012829
:100EA000F6D100BF70BD000070B504460D460121AB
:100EB0001348FFF719FD13491148FFF7E3FF00221C
:100EC000D0210F48FFF7A2FD0F490D48FFF7DAFFC9
:100ED00021460B48FFF7A3FD0B49891E0848FFF781
:100EE000D1FF29460648FFF79AFD0749891C0448A7
:100EF000FFF7C8FF01210248FFF702FD70BD0000A7
:100F000000580040010003008200070000BFFEE718
:100F10007047000070B5002100230F22C47804B38D
:100F2000154C246804F4E064C4F5E064210AC1F1BE
:100F30000403CA40447804FA03F18478144021433E
:100F400009010E4C0678A155047804F01F05012410
:100F5000AC4005786D11AD0005F1E025C5F8004104
:100F600009E0047804F01F050124AC40044D067824
:100F7000761145F8264070BD0CED00E000E400E07D
:100F800080E100E002490143024A1160704700001D
:100F90000000FA050CED00E070B500240EE0002121
:100FA000204600F0E6F8002504E0002000F050F9AB
:100FB000681CC5B2802DF8DB601CC4B2082CEEDBC7
:100FC00070BD000008B50121082000F021FB1420AD
:100FD0008DF8030003208DF802004FF48070ADF807
:100FE000000069460A48FFF7B3FB4FF40070ADF804
:100FF000000069460648FFF7ABFB012211020448D6
:10100000FFF73EFC012251020148FFF739FC08BD01
:10101000000C014070B50546002415E080202041F9
:1010200000EA05024FF400710E48FFF729FC012287
:1010300011020C48FFF724FC00224FF4807109488C
:10104000FFF71EFC601CC4B2082CE7DB0122110272
:101050000448FFF715FC00224FF480710148FFF7A8
:101060000FFC70BD000C014010B5012251020A486E
:10107000FFF706FC012211020748FFF701FC0022DE
:101080004FF400710448FFF7FBFB00224FF480711E
:101090000148FFF7F5FB10BD000C014010B5002220
:1010A0004FF400710648FFF7EBFB012211020448E0
:1010B000FFF7E6FB012251020148FFF7E1FB10BDFB
:1010C000000C014070B5002406E0002500E06D1C16
:1010D000B5F57A7FFBD3641CB4F57A7FF5D3FFF7BF
:1010E00071FFAE2000F0A4F8D52000F0A1F8802018
:1010F00000F09EF8A82000F09BF83F2000F098F840
:10110000D32000F095F8002000F092F8402000F085
:101110008FF8A12000F08CF8C82000F089F8DA20C0
:1011200000F086F8122000F083F8812000F080F8AB
:10113000CF2000F07DF8D92000F07AF8F12000F0FF
:1011400077F8DB2000F074F8302000F071F8A4206C
:1011500000F06EF8A62000F06BF88D2000F068F823
:10116000142000F065F8AF2000F062F8FFF714FFDC
:1011700070BD70B505460C4645F0B00000F058F85B
:10118000102141EA141000F053F804F00F0000F0B1
:101190004FF870BD2DE9F04105460E461746721E08
:1011A000D206110E6A1E5206100EFFF7E2FF00244F
:1011B00009E0A7F12001134A02EB0111085D00F0DC
:1011C00047F8601CC4B2082CF3DB721ED206110E65
:1011D0006A1E012303EB4202D0B2FFF7CAFF0024CC
:1011E0000BE0A7F12001074A02EB011204F108010C
:1011F000505C00F02DF8601CC4B2082CF1DBBDE897
:10120000F0810000FC3300082DE9F04107460E464E
:101210001546002407E02A5D3019C1B23846FFF7B1
:10122000B9FF601CC4B2285D0028F4D1BDE8F0818C
:1012300010B50446FFF718FF7820FFF7EBFE0020FB
:10124000FFF7E8FE2046FFF7E5FEFFF727FF10BD9A
:1012500010B50446FFF708FF7820FFF7DBFE4020BB
:10126000FFF7D8FE2046FFF7D5FEFFF717FF10BDAA
:1012700000B589B00121084600F0BAF90121042027
:1012800000F0C6F918208DF807000120ADF8040021
:1012900003208DF8060001A95148FFF759FA1820DC
:1012A0008DF807000220ADF8040003208DF8060039
:1012B00001A94B48FFF74CFA18208DF807000420CD
:1012C000ADF8040003208DF8060001A94448FFF79B
:1012D0003FFA18208DF807000820ADF8040003201D
:1012E0008DF8060001A93E48FFF732FA4FF0804022
:1012F00000F0F2FB0020ADF81E00ADF81A0042F23B
:101300000F70ADF81C004720ADF8180000208DF8D4
:10131000200006A94FF0804000F052FD02A800F026
:101320003CFD6020ADF808000020ADF81000012061
:10133000ADF80A000020ADF80E0002A94FF0804081
:1013400000F0D0FB0821C80600F018FC6020ADF8C2
:1013500008000020ADF810000120ADF80A000020C0
:10136000ADF80E0002A94FF0804000F011FC0821FA
:10137000C80600F05FFC6020ADF808000020ADF862
:1013800010000120ADF80A000020ADF80E0002A9FF
:101390004FF0804000F05CFC0821C80600F0A8FC7B
:1013A0006020ADF808000020ADF810000120ADF875
:1013B0000A000020ADF80E0002A94FF0804000F0B6
:1013C000A1FC0821C80600F0DBFC0121880700F021
:1013D0006BFB0121880700F073FB09B000BD000022
:1013E0000008014010B5044621464FF0804000F04F
:1013F000DEFC10BD10B5044621464FF0804000F0E1
:10140000D8FC10BD10B5044621464FF0804000F0D6
:10141000D2FC10BD10B5044621464FF0804000F0CC
:10142000CCFC10BD10B5012010490870487000F0C8
:1014300055FA40F2DC50FFF7D5FF0DA20121084616
:10144000FFF7E2FE4FF47A70FFF78BF84FF4FA7073
:10145000FFF7C8FF09A201210846FFF7D5FE0CA23D
:1014600001210846FFF7D0FE10BD0000310000202A
:1014700052656379636C61626C65000020202020F6
:1014800020202020202020202020202000000000DC
:10149000636C6F736500000010B50220104908707E
:1014A000487000F01BFA40F2DC50FFF7A3FF0DA2DA
:1014B00001210846FFF7A8FE4FF47A70FFF751F8B4
:1014C0004FF4FA70FFF796FF08A201210846FFF7D4
:1014D0009BFE0BA201210846FFF796FE10BD0000FF
:1014E000310000204B69746368656E002020202065
:1014F000202020202020202020202020000000006C
:10150000636C6F736500000010B50320104908700C
:10151000487000F0E3F940F2DC50FFF773FF0DA2D2
:1015200001210846FFF770FE4FF47A70FFF719F8B3
:101530004FF4FA70FFF766FF09A201210846FFF792
:1015400063FE0CA201210846FFF75EFE10BD0000FD
:101550003100002048617A6172646F757300000089
:10156000202020202020202020202020202020207B
:1015700000000000636C6F736500000010B504206C
:1015800010490870487000F0A9F940F2DC50FFF7EC
:1015900041FF0DA201210846FFF736FE4FF47A7095
:1015A000FEF7DFFF4FF4FA70FFF734FF08A20121C6
:1015B0000846FFF729FE0BA201210846FFF724FE8B
:1015C00010BD0000310000204F74686572000000FB
:1015D000202020202020202020202020202020200B
:1015E00000000000636C6F7365000000704700002E
:1015F00029B1064AD2690243044BDA6104E0034A86
:10160000D2698243014BDA6170470000001002404A
:1016100029B1064A92690243044B9A6104E0034AE5
:1016200092698243014B9A617047000000100240AA
:1016300030B500210022002400232D4D6D6805F0F7
:101640000C0121B1042905D0082923D105E0294D39
:10165000056022E0274D05601FE0254D6D6805F40B
:101660007012234D6D6805F48034022505EB92421B
:101670001CB9214D554305600BE01D4D6D6805F407
:1016800000351DB11C4D5543056002E0194D554311
:10169000056002E0174D056000BF00BF144D6D6886
:1016A00005F0F0010909154D6B5C0568DD404560EA
:1016B0000F4D6D6805F4E061090A104D6B5C4568DB
:1016C000DD4085600A4D6D6805F46051C90A0B4D17
:1016D0006B5C4568DD40C560054D6D6805F44041B3
:1016E000890B074D6B5CC568B5FBF3F5056130BD33
:1016F0000010024000127A0000093D0000000020A6
:101700001000002010B500F065F801284CD100F061
:101710005BF82649087008460078012807D1FFF7D2
:1017200081FE23480078401C214908703CE01F4896
:101730000078022807D1FFF7AFFE1E480078401C52
:101740001C49087030E019480078032807D1FFF7DA
:10175000DBFE19480078401C1749087024E0134844
:101760000078042807D1FFF709FF14480078401CCF
:101770001249087018E00D480078052808D1FFF7D5
:1017800013FA05200E490870487000F0A7F80BE026
:1017900006480078062807D1FFF7FEF90620084919
:1017A0000870487000F09AF810BD00001500002085
:1017B0002000002021000020220000202300002023
:1017C0003100002070470000014800787047000099
:1017D0003500002005480078012804D10020034985
:1017E0000870012070470020FCE700003600002050
:1017F00000B587B04FF4A060FFF7C4FB01210420BF
:10180000FFF706FF01218803FFF702FF18208DF87C
:101810001B004FF40070ADF8180003208DF81A007B
:1018200006A91D48FEF794FF48208DF81B004FF4D1
:101830008060ADF8180006A91748FEF789FF4FF43D
:10184000165002900020ADF814000C20ADF81200E4
:101850000020ADF81000ADF80E00ADF80C0002A9A4
:101860000E4800F093FB012240F225510B4800F096
:1018700067FB0121094800F020FB25208DF80400BA
:1018800001208DF807008DF805008DF8060001A8ED
:10189000FFF740FB07B000BD0008014000380140E1
:1018A00070B505460E46002404E0285D00F006F8F9
:1018B000601C84B2B442F8DB70BD000010B5044671
:1018C0002146054800F0D3FB00BF8021024800F00C
:1018D00000FB0028F9D010BD0038014010B5AA2047
:1018E000FFF7ECFF5520FFF7E9FF02210448FFF75F
:1018F000D7FF5520FFF7E2FFAA20FFF7DFFF10BD5B
:101900003100002010B5FFF7B3FCFFF7DBFBFFF75A
:101910002DF9FFF787F8FFF76BFFFFF74DF9FFF79A
:1019200013FA10BD10B500F001F810BD0CB5002081
:10193000019000903348006840F4803031490860DD
:1019400000BF3048006800F4003000900198401C4F
:101950000190009818B90198B0F5A06FF1D129480D
:10196000006800F4003010B10120009001E0002078
:1019700000900098012843D12348006840F01000EF
:10198000214908600846006820F003000860084606
:10199000006840F0020008601A4840681949486031
:1019A0000846406848600846406840F480604860E7
:1019B0000846406820F47C1048600846406840F4BF
:1019C000E81048600846006840F08070086000BF7A
:1019D0000C48006800F000700028F9D00948406801
:1019E00020F00300074948600846406840F00200C4
:1019F000486000BF0348406800F00C000828F9D197
:101A00000CBD0000001002400020024010B505A2ED
:101A100001210320FFF7F8FB06A201210420FFF7B4
:101A2000F3FB10BD35303036323130313031627435
:101A30007A000000353030363231303130386C6663
:101A40007A0000007047000010B51348006840F0AD
:101A500001001149086008464068104908400E49D5
:101A60004860084600680E4908400B49086008466F
:101A7000006820F4802008600846406820F4FE00DA
:101A800048604FF41F008860FFF74CFF4FF0006084
:101A90000449086010BD0000001002400000FFF87B
:101AA000FFFFF6FE08ED00E021B1028842F080025F
:101AB000028004E002884FF67F731A40028070476C
:101AC00021B1028842F00102028004E002884FF650
:101AD000FE731A400280704701894FF6F872114078
:101AE0000181704770B5002400220023058C4FF659
:101AF000FE7635400584028C8388048B4FF68F7503
:101B00002C40B51E2C400D882C43751E2A400D8993
:101B10002A434D882A43144DA8420BD0134DA842A6
:101B200008D0134DA84205D0124DA84202D0124D44
:101B3000A84213D14FF6F7752A404D892A434FF634
:101B4000FB752A408D882A434FF6FF652B404FF6E0
:101B5000FF552B408D892B43CD892B4383800483F4
:101B6000CD888586028470BD002C01400034014080
:101B70000040014000440140004801400A46002165
:101B8000018B4FF6F7731940114301837047000032
:101B900070B5002400220023058C4FF6EF76354007
:101BA0000584028C8388048B48F6FF752C404FF621
:101BB000FF452C400D884FF6FF7606EA05252C439D
:101BC0004FF6DF752A400D8906EA05152A434D8830
:101BD00006EA05152A43154DA84202D0144DA84225
:101BE0001DD14FF67F752A404D894FF6FF7606EAE4
:101BF00005152A434FF6BF752A408D8806EA05155C
:101C00002A434FF6FF352B404FF2FF752B408D894D
:101C100006EA85052B43CD8906EA85052B4383809B
:101C20000483CD880587028470BD0000002C01402C
:101C3000003401400A460021018B4FF2FF73194026
:101C40004FF6FF7303EA0223194301837047000034
:101C500070B5002400220023058C4FF6FF66354046
:101C60000584028C8388848B4FF68F752C404FF649
:101C7000FC752C400D882C434FF6FF552A400D89EA
:101C80004FF6FF7606EA05252A434D8806EA052524
:101C90002A43154DA84202D0144DA8421DD14FF23F
:101CA000FF752A404D894FF6FF7606EA05252A433F
:101CB0004FF6FF352A408D8806EA05252A434EF661
:101CC000FF752B404DF6FF752B408D8906EA0515F3
:101CD0002B43CD8906EA05152B4383808483CD8869
:101CE0008587028470BD0000002C01400034014053
:101CF0000A460021818B4FF6F77319401143818307
:101D00007047000070B5002200230024058C4EF6B9
:101D1000FF7635400584038C8488828B48F6FF75F6
:101D20002A404FF6FF452A400D884FF6FF7606EA17
:101D300005252A434DF6FF752B400D8906EA05352A
:101D40002B434D8806EA05352B430B4DA84202D0A4
:101D50000A4DA84208D14BF6FF752C408D894FF6ED
:101D6000FF7606EA85152C4384808283CD88A0F80F
:101D70004050038470BD0000002C0140003401403D
:101D80000A460021818B4FF2FF7319404FF6FF7313
:101D900003EA0223194381837047002101804180B7
:101DA0008180C180018141818181C18170478186AB
:101DB00070470187704781877047A0F840107047CF
:101DC000002202881D4B98420ED01D4B98420BD02A
:101DD000B0F1804F08D01B4B984205D01A4B984267
:101DE00002D01A4B984204D14FF68F731A404B8899
:101DF0001A43174B984207D0164B984204D04FF61F
:101E0000FF431A40CB881A4302808B8883850B8856
:101E100003850A4B98420BD0094B984208D00E4BD1
:101E2000984205D00D4B984202D00D4B984201D1FB
:101E30000B7A03860123838270470000002C014047
:101E4000003401400004004000080040000C004045
:101E500000100040001400400040014000440140D8
:101E60000048014010B540F22551094800F03EF805
:101E700001280CD1064800F0F5F806490870012049
:101E80000549087040F22551014800F007F810BDDF
:101E900000380140350000203600002010B5002237
:101EA000002340F66A14A14200D100BF0A120124A7
:101EB0009440A3B2DC43048010BD21B1828942F476
:101EC0000052828104E082894DF6FF731A408281BC
:101ED000704702460020B1F5007F00D100BF138893
:101EE0000B400BB1012000E00020704770B50246A6
:101EF000002400230025002040F66A16B14200D1DC
:101F000000BFC1F3421501F01F03012606FA03F3D7
:101F1000012D02D19689334006E0022D02D1168AA6
:101F2000334001E0968A33400C12012606FA04F48D
:101F30001688344013B10CB1012000E0002070BDC0
:101F4000F0B50346002400260025002040F66A175D
:101F5000B94200D100BF1846C1F3421401F01F0678
:101F6000012707FA06F5012C01D10C3004E0022C00
:101F700001D1103000E014301AB107682F43076018
:101F800002E00768AF430760F0BD00002DE9F047AD
:101F900086B005460E460024A24600BFA146002793
:101FA000B08900B100BF2F462C8A4CF6FF70044068
:101FB000F08804432C82AC894EF6F3100440B088BC
:101FC00031890843718908430443AC81AC8A4FF6D8
:101FD000FF400440B0890443AC8201A8FFF728FB0E
:101FE0001F48874202D1DDF810A001E0DDF80CA007
:101FF000A88900F4004040B10AEBCA0000EB0A10C7
:1020000031684900B0FBF1F807E00AEBCA0000EBC9
:102010000A1031688900B0FBF1F86420B8FBF0F0D9
:1020200004012009642101FB1089A88900F4004003
:1020300040B1322000EBC900B0FBF1F000F0070026
:10204000044308E0322000EB09106421B0FBF1F0FA
:1020500000F00F0004432C8106B0BDE8F0870000BB
:102060000038014001468888C0F308007047C1F37A
:1020700008028280704700BFFEE7490050EAC12095
:1020800018BF04204A0D18BF40F0010040F2FF7253
:10209000B2EB515F08BF40F00200012808BF0520E5
:1020A00070472DE9F0414F1E00EBC7010446D1E90E
:1020B000000115461E4637F006020DD02A4633466B
:1020C00000F08EFD7F1E04EBC703D3E9002300F070
:1020D00067FB37F00602F1D1022F25D0042F13D071
:1020E000062F18BFBDE8F0812A46334600F078FD80
:1020F000D4E90A2300F054FB2A46334600F070FD71
:10210000D4E9082300F04CFB2A46334600F068FD72
:10211000D4E9062300F044FB2A46334600F060FD74
:10212000D4E9042300F03CFB2A46334600F058FD76
:10213000D4E9022300F034FB2A46334600F050FD78
:10214000D4E90023BDE8F04100F02ABB012201F0F0
:102150000FB900F025BB0000024A0020110701F072
:1021600007B9000001FDFFFF2DE9F84F04460D46B9
:1021700021F0004000917349814211DC724988428C
:1021800001DC06D12CB120462946BDE8F84FFFF707
:10219000DDBF6E48002DCCBF6D496E49BDE8F88F9C
:1021A0006D49814211DD6D498142D8BF4FF0FF3644
:1021B0006DDD20462946FFF760FF042808BFFFF7C2
:1021C000CBFF20462946BDE8F88F6549654F25F0CD
:1021D0000045814233DD6449814219DD00263246E3
:1021E0004FF080432046294600F0DAFA80468A46BE
:1021F00001222046294601F0BBF800223B4600F0B0
:10220000DFFE4246534600F07BFB04460D463EE0AF
:1022100001260022BA463B462046294600F0C0FA75
:1022200080460F46002253462046294600F0C8FE4D
:1022300042463B4600F064FB04460D4627E04B490E
:1022400081421BDDDFF828A10226002253462046EA
:10225000294600F0C5FC00223B4600F0A1FA80466A
:102260000F46002253462046294600F0A9FE42466A
:102270003B4600F045FB04460D4608E00326224697
:102280002B4600203B4900F03BFB04460D4622460E
:102290002B461046194600F0A3FC8B4682460246A8
:1022A0000B4600F09DFC07460246334888460B4625
:1022B00006217844FFF7F5FE52465B4600F090FC9D
:1022C00082462E488B463A46434605217844FFF71E
:1022D000E8FE3A46434600F083FC02460B46002ED9
:1022E000504659460CDA00F05BFA22462B4600F0C5
:1022F00077FC01B022462B46BDE8F04F00F06EBDE2
:1023000000F04EFA22462B4600F06AFC1C4A7A4442
:1023100002EBC603D3E9002300F052FE22462B460F
:1023200000F04EFE174A7A4402EBC603D3E90023BD
:1023300000F054FD009A002AB8BF81F00041BDE8CA
:10234000F88F0000000010440000F07F182D445466
:10235000FB21F93FFB21F9BF0000DC3F0000203EDC
:102360000000F33F0000F03F0000E63F0080034024
:102370000000F83F0000F0BFA21700006017000047
:10238000FE160000C61600002DE9F04D9446CCF173
:10239000000423F000464CEA0404524F46EAD47489
:1023A0009A46884621F00042BC4206D8454240EA9F
:1023B000050442EAD474BC4204D9BDE8F04D62463B
:1023C000FFF7C7BEAAF14055A5F17F6555EA0C0499
:1023D0000BD0022404EAAA74434DDFF810E144EA6A
:1023E000D87452EA000B04D00CE0BDE8F04DFFF7C2
:1023F000BBBE002C14BF012CBDE8F08D022C30D0E8
:10240000032C32D056EA0C0B0AD0BE4220D1BA427D
:1024100009D126F0804622F080423346114617E06B
:1024200000291ADB25E0DFF8C8B0FB44002C04BF0C
:10243000DBE90001BDE8F08D012C02BFDBE9000102
:1024400081F00041BDE8F08D022C0AD0032C0CD0A5
:10245000BA4212D1B8F1000F0BDA23482549BDE882
:10246000F08D28462449BDE8F08D28467146BDE828
:10247000F08D1D482149BDE8F08D921B12153C2AB4
:10248000C4BF19481D490EDCBAF1000FBEBF12F1DE
:102490003C0F0020014606DB624600F031FA21F0D5
:1024A0000041FFF761FE002C08BFBDE8F08D012C54
:1024B00004BF81F00041BDE8F08D114A114B022CA0
:1024C00007D000F07DFD2A46BDE8F04D0A4B00F034
:1024D00077BD00F075FD2A46BDE8F04D064B00F0D3
:1024E0007DBC00000000F07F182D4454FB2109C082
:1024F0005A160000FB21F9BFFB210940FB21F93FDF
:10250000075C143326A6A13C10B50446012C28D143
:1025100020215448FEF7A7F9A0B940F2DC50FEF79D
:1025200061FF51A201210846FEF76EFE01205149CC
:1025300008704870FFF7D2F94F480078401C4E49A8
:1025400008708EE04DA201210846FEF75DFE4FF4B3
:10255000FA70FEF747FF4EA201210846FEF754FE2F
:102560007FE0022C28D140213E48FEF77CF9A0B93B
:1025700040F2DC50FEF73EFF47A201210846FEF77D
:1025800043FE02203B4908704870FFF7A7F9444812
:102590000078401C4249087063E038A201210846D7
:1025A000FEF732FE4FF4FA70FEF724FF38A2012145
:1025B0000846FEF729FE54E0032C28D18021294843
:1025C000FEF751F9A0B940F2DC50FEF71BFF35A22F
:1025D00001210846FEF718FE0320264908704870BE
:1025E000FFF77CF932480078401C3149087038E028
:1025F00022A201210846FEF707FE4FF4FA70FEF70B
:1026000001FF23A201210846FEF7FEFD29E0042C6C
:1026100027D1A1011348FEF726F9A0B940F2DC50FA
:10262000FEF7F8FE23A201210846FEF7EDFD042087
:10263000104908704870FFF751F920480078401C95
:102640001E4908700DE00DA201210846FEF7DCFDD1
:102650004FF4FA70FEF7DEFE0DA201210846FEF7E8
:10266000D3FD10BD0008014052656379636C61625F
:102670006C65000031000020200000202020202078
:1026800020202020202020202020202000000000CA
:10269000636C6F73650000004B69746368656E005E
:1026A0002100002048617A6172646F757300000038
:1026B000220000204F746865720000002300002093
:1026C000FFF720F908A201210846FEF79DFDFFF75C
:1026D0009DF907E0FFF716F8FDF77AFEFEF7B0FA6E
:1026E000FDF7BEFDF6E70000636C6F736500000048
:1026F0002DE9F04106460F4600F07CFB041E0D4616
:1027000018BF0120284320F00040C0F17F6000F195
:10271000E040C00F0ED0301C18BF0120384320F01D
:102720000040C0F17F6000F1E040C00F04BF012015
:10273000FDF752FD20462946BDE8F08121F0004218
:10274000A2F16052B2F5801F01F0004328BFD2F120
:102750007F6C0BD95FEA001C43EAC20242EB507067
:1027600018BF704728BF20F001007047B2F5801FE6
:10277000BCBF184670474FEA410C1CF5001F02D23F
:10278000084600F08DBD70B500F0D4FA0000008955
:10279000FFF7F6BF4FF00040A0F580007047000043
:1027A00010B591EA030F48BF83F0004300F1108495
:1027B000841A71EB030C05D2121943EB0C03001BB6
:1027C00061EB0C01DFF824E14FEA1154A4EB135C38
:1027D0001EEA430F18BF9EEA445F73D023EA0E033C
:1027E000DCF1200E21EA045143F4801332D322FAA3
:1027F0000CFE10EB0E0023FA0CFE41EB0E01CCF1A7
:10280000200E03FA0EFE10EB0E0051F10001B1F59F
:10281000801FCCF1200E32D201EB045112FA0EF2DD
:10282000BDE8104058BF7047401C38BF5FEA420205
:1028300018BF7047002814BF20F0010041F10001CB
:102840004FEA410313F5001F38BF7047A1F1C041A3
:1028500000F0BEBA012A43EB0302ACF1200CDCF11C
:102860001F0E32BF4FF0000E23FA0CF310EB0300E3
:1028700041EB0451B4EB115FD0D0A1EB045101F551
:10288000801149085FEA300001EB04510ED350F18A
:10289000000038BF12FA0EFE08D1BDE81040C9E7AB
:1028A000401C38BF5FEA4202CAD1C3E7BDE810400E
:1028B0004FEA410313F5001F38BF7047A1F1C04133
:1028C00000F086BA9EEA445F08D011EA5E0FBDE8C8
:1028D000104004BF01F0004100207047BDE81040E7
:1028E00070B500F027FA00BF64FBBE3E0000E0FFB9
:1028F00002494FF0000000F009BD00BF0000F87F62
:102900002DE9C04130B4DFF8A0C23CEA111418BF71
:102910003CEA131400F0EC8081EA03051CEA111470
:1029200044EAD57418BF1CEA131500F0C780A4EB65
:1029300005044FF0004545EAC12145EAC32341EAB9
:10294000505143EA525304F17F74994204F5003424
:102950004FEAC0204FEAC22208BF904200F09C809C
:102960004FEA13650FF24016765D4FEA134506FBFA
:1029700005F7C7F1807706FB07F74FEAD737A7FBC4
:1029800003687642C8F58038A7FB06CE38BFA8F1A9
:10299000010807FB08E64FF0000EA6FB028CE6FBE1
:1029A00003CEDCF1000CCEF1004E38BFAEF1010ECB
:1029B000A6FB0C584FF000074FF00005E6FB0E8712
:1029C000A1FB08C6A0FB07CE16EB0E0645F10005DD
:1029D000E1FB076515F1E04E7EBFA4F580345FEAA8
:1029E00046066D4116F1800745F100054FEA1727AD
:1029F0004FEA066647EA0567A6F1DE46B6F1805F54
:102A00004FEA15251FD9384624F0010C05EBC47197
:102A1000BCF1FE6F01EB0C1102D8F0BCBDE80081E7
:102A200024425CBF01F5801E9EEAC47F02D4F0BC44
:102A3000BDE80081244238D4F0BCA1F1C041BDE81A
:102A4000004100F0C5B94FEAD22242EA43524FEAB0
:102A5000D323A7FB02864FEAD02040EA415007FB70
:102A600003661EEA0E0F4FEAD12105FB026658BF2E
:102A7000A6EB0056B6EB00564FEA520E4EEAC37E66
:102A800018EB0E0E56EB530EBDD518EB02085E4147
:102A90007F1C55F10005B6E74FF480154FF0000795
:102AA0004FF000064FF00008ADE7F0BC4FF000001B
:102AB00001F1C04101F00041BDE8008111EA0C1FA5
:102AC0000CEA131500D00CE013EA0C1F00F025806F
:102AD0004FF00000F0BC81EA030101F00041BDE8C5
:102AE0000081F0BCBDE8004181EA030100F070B94B
:102AF000F0BCBDE8004170B500F01CF9097EFC3E59
:102B000000F007B881EA03014FF0000001F0004136
:102B1000704781EA030100F05BB9F0BCBDE80041F9
:102B20004FF0000021497047FFFDFBF9F7F5F4F283
:102B3000F0EEEDEBE9E8E6E4E3E1E0DEDDDBDAD858
:102B4000D7D5D4D3D1D0CFCDCCCBCAC8C7C6C5C4B6
:102B5000C2C1C0BFBEBDBCBBBAB9B8B7B6B5B4B3CD
:102B6000B2B1B0AFAEADACABAAA9A8A8A7A6A5A4B8
:102B7000A3A3A2A1A09F9F9E9D9C9C9B9A9999987C
:102B80009797969595949393929191908F8F8E8E1F
:102B90008D8C8C8B8B8A89898888878786858584AC
:102BA00084838382828181800000FF070000F87F98
:102BB00010F0004248BF4042B0FA80F310FA03F12F
:102BC0000AD0C3F11D0303F580634FEA415002EBC5
:102BD000035202EBD12170474FF000007047000014
:102BE000DFF848C170B51CEA111E1EBF1CEA1315A0
:102BF0009EEA0C0F95EA0C0F00F06F8081EA030447
:102C000023EA4C134EEAD47E21EA4C1141F48011A0
:102C100043F48013AE44A1FB024CA0FB0365AEF16C
:102C20007F7E361955EB0C05A1FB034C4CF10003DC
:102C3000A0FB021C16EB0C06654153F10003094290
:102C400018BF46F0010613F4007F0BD14FEA0331A1
:102C50004FEA0530340341EA155140EA16506FF04F
:102C600003020AE04FEAC3214FEAC520F40241EA19
:102C7000555140EA56506FF0020202EB2E4201EB32
:102C8000025585EACE710AD05FEA440C18BF24F0E1
:102C9000004450F1000041F1000120EAD47040F2FC
:102CA000FE7C624500D270BDA84214BF4FF0804444
:102CB0004FF04044002E08BF0024BEF1806FA8BF33
:102CC000A1F1C041BDE8704080F282804FF0000069
:102CD00001F1C04101F0004170479EEA0C0F0CEA7F
:102CE000131518BF95EA0C0F06D04FF0000081EACB
:102CF000030E0EF0004170BD00F01CF88900013E8B
:102D000000F007B800F009B84FEA430C5FEA5C5CDA
:102D100008D081EA030100F05BB84FEA410C5FEA9A
:102D20005C5CF6D14FF00000014970470000FF07DE
:102D30000000F87F0EF1020E2EF0030E5EF8046B19
:102D4000364205D4012A43EB030515F5001F12D8BE
:102D5000012841EB010C1CF5001F0CD80ED14FEAE5
:102D6000D17C15F5001F0CEB4C0C0CF1020C08BFCC
:102D70004CEBD37C04E04FF0080C01E04FEAD37C2D
:102D80000CEB4C0526FA05F606F00706B6F1040C26
:102D900006D20EEB860CBDE870404CF0010C60478B
:102DA000DFE80CF0090B02024FF000414FF0000089
:102DB000A1F5002170BD19461046012851EB010410
:102DC00018BFD4F5001484BF002001F0004170BD8D
:102DD0000808A0F500114FEA3101704791EA030F8E
:102DE00010B581F000413FF5E3AC83F0004300F003
:102DF000EFB800002DE9F04101F5801CBCF5001F83
:102E0000C0F2C3804FEA115C21EA0C510CF1FD0CB9
:102E100041F480115FEA5C0C0CF5C07C01D34000EA
:102E200049413DA4890241EA905187028E0E0A0C65
:102E3000A45D04FB04F602FB06F6C6F14046A4FBC3
:102E40000662F60D46EA422606FB06F4A4FB0123C1
:102E50005242C3F1404338BF5B1EA6FB024200242E
:102E6000E6FB0324D20B42EA4446A6FB0623A1FB61
:102E700002E2A3FB07E4A4184FF0000252F10002A3
:102E8000E3FB01426442C2F1404E38BFAEF1010E95
:102E9000A6FB04234FF00002E6FB0E32A2FB034622
:102EA0004FF00004B61954F10004E2FB0264A1FBE8
:102EB00006E6A4FB07E816EB08064FF0000858F1F9
:102EC0000008E4FB01687642C8F1405838BFA8F119
:102ED0000108A2FB06E4A3FB08E52D194FF000044E
:102EE00054F10004E2FB0854A1FB05E6A7FB04E84B
:102EF00018EB06084FF0000656F10006E1FB0486C9
:102F000018F1200556F10006A809A8F11B08B1091F
:102F100008F03F08B8F10A0F40EA86601CD901EBBF
:102F20000C51BDE8F08100BFFCF5EEE8E2DDD8D33E
:102F3000CFCBC7C3C0BDB9B6B4B1AEACA9A7A5A32A
:102F4000A19F9D9B9A9896959392908F8D8C8B893B
:102F50008887868584838281A0FB006800FB01F25C
:102F600008EB4208B8EB872807D5341858EB010462
:102F7000D5D5401C51F10001D1E7341A78EB01049A
:102F8000CDD4401E71F10001C9E75FEA4C0C5FEA45
:102F90009C5C0DD105D34FF0000001F00041BDE86D
:102FA000F081BDE8F04170B5FFF7C4FE6DDBFFBEF8
:102FB000BDE8F0414FF00000004970470000F87F85
:102FC00010B591EA030F48BF83F000433FF5F0AB23
:102FD000841A71EB030C07D212198CF0004C43EBEE
:102FE0000C03001B61EB0C01DFF8A4E14FEA115464
:102FF000A4EB135C1EEA430F18BF9EEA445F00F087
:10300000B08023EA6E03524221EA0451C3EB6E03FF
:1030100038BF5B1EDCF1200E25D322FA0CFE10EB2C
:103020000E0043FA0CFE41EB0E01CCF1200E03FA28
:103030000EFE10EB0E0051F10001CCF1200E29D450
:1030400012FA0EF201EB0451BDE8104058BF704770
:10305000401C1CBFB2F1004F704700280CBF491C38
:1030600020F00100704712EB020E43EB030218BF81
:103070004FF0010E4EEA4202ACF1200CDCF11E0EC4
:1030800054D943FA0CFE10EB0E0051F1FF31CCF194
:103090001E0ED5D50EF1010E12FA0EFE404141EB87
:1030A000010101EB445C5FEA5C5C10D910EBDE705F
:1030B00001EB045138BFBEF1004FBDE8104018BF0E
:1030C000704700280CBF491C20F00100704730D227
:1030D0004FEAD42C11F5001124F400641BD0B1FA8E
:1030E00081F20B3AA41AA41ED2F12003914030FAC7
:1030F00003F31943904001EBCC71002C01EB045118
:10310000BDE81040A8BF704701F1C0414FF000007A
:1031100001F000417047B0FA80F310FA03F100D1DA
:1031200010BDE41A173C4805C90AE4E701EB045155
:1031300010BD491001EB0451BDE810404FEA3000CA
:1031400002E04FF0000170474A0008BF0042F8D08B
:10315000B2F5001F28BF704701F000414FF000009A
:1031600070479EEA445F07D011EA5E0FBDE8104049
:1031700004BF002100207047BDE8104070B5FFF784
:10318000D9FD00BF40DFF63E83F000411046704796
:103190000000E0FF401058BFC0F14040491058BF48
:1031A000C1F140418142EFF30080704750EA010CC9
:1031B00000F113801CF5000F58BFBCF5000F01D4BF
:1031C0008842704707D710F5000F58BF11F5000F60
:1031D00015D488427047894270471CF5000F04D50A
:1031E000BCF5000FF7D5814270474FF0807C1CEB97
:1031F000400F38BF1CEB410F01D28142704710B520
:1032000000F008F8922449004FF000504FF0805130
:10321000FFF7C0BF0EF1020E2EF0030E5EF8044B56
:10322000244204D44FEA4102B2F17F4F11D84FEA51
:103230004003B3F17F4F0CD80ED14FEAD07CB2F1EE
:103240007F4F0CEB4C0C0CF1020C08BF4CEBD17C0B
:1032500004E04FF0080C01E04FEAD17C0CEB4C038A
:1032600024FA03F404F00704B4F1040C06D20EEBC4
:10327000840CBDE810404CF0010C6047DFE80CF016
:10328000070802024FF00040A0F5800010BD08467C
:10329000420018BFD2F1807288BF00F0004010BD1C
:1032A000FF2141EAD050C005704751EA000C00F1FF
:1032B00013801CF5000F58BFBCF5000F01D48142EC
:1032C000704707D711F5000F58BF10F5000F15D440
:1032D00081427047894270471CF5000F04D5BCF548
:1032E000000FF7D5884270474FF0807C1CEB410FF0
:1032F00038BF1CEB400F01D28842704780EA0100C2
:1033000081EA000180EA0100FFF779BF0CF00F03AA
:10331000092B08BF082000F059800A2B0BD0082B7E
:1033200018BF704708BF1CF0400F0AD04FF00000D4
:103330004FF0000170471CF0400F18BF4FF00040E5
:1033400070471CF0100F08D020F0704300F07F424F
:1033500042EAD3014FEA4370704700F0604021F029
:103360007F4242EA000201F07F4040EA72707047FB
:103370004FF0FF0C4CF4E06C1CEA11531CBF9CEAAC
:10338000030C9445C2BFDA4201EB02517047002B97
:103390000DD0BCF1000F0FD0002A01F00041A4BFF6
:1033A00041F0E04141F07F614FF00000704701F0D3
:1033B00000414FF00000704750EA01334FF09B0C82
:1033C00018BF4CF0806C7FF493AA70471CF4801FE8
:1033D00011D01CF4E02F03D06FEACC3149007047C4
:1033E0004FF04050EFF3008222F0704242EA0002B8
:1033F00082F3008870474FF0000070470000000023
:10340000000000000000000000000000000000F8C4
:1034100000000000000000333000000000100C0627
:10342000100C0600000000000000000040C07840C2
:10343000C0784000043F04043F040400007088FC8E
:1034400008300000001820FF211E0000F008F000E6
:10345000E018000000211C031E211E0000F0088857
:10346000700000001E2123241927211010160E00C1
:10347000000000000000000000000000000000E06C
:103480001804020000000007182040000002041881
:10349000E00000000040201807000000404080F0DD
:1034A000804040000202010F01020200000000F013
:1034B000000000000101011F0101010000000000E7
:1034C0000000000080B0700000000000000000005C
:1034D00000000000000101010101010100000000E5
:1034E000000000000030300000000000000000007C
:1034F00080601804006018060100000000E0100859
:103500000810E000000F102020100F00001010F82D
:10351000000000000020203F20200000007008086C
:1035200008887000003028242221300000300888EC
:10353000884830000018202020110E000000C02014
:1035400010F8000000070424243F240000F8088835
:10355000880808000019212020110E0000E01088C2
:1035600088180000000F112020110E0000380808F4
:10357000C83808000000003F000000000070880804
:1035800008887000001C222121221C0000E0100885
:103590000810E0000000312222110F00000000C0DE
:1035A000C00000000000003030000000000000807B
:1035B000000000000000806000000000000080406B
:1035C0002010080000010204081020004040404084
:1035D00040404000040404040404040000081020D7
:1035E000408000000020100804020100007048081C
:1035F0000808F0000000003036010000C030C82884
:10360000E810E0000718272423140B000000C0383E
:10361000E0000000203C23020227382008F88888B8
:1036200088700000203F202020110E00C0300808C4
:1036300008083800071820202010080008F808089B
:103640000810E000203F202020100F0008F8888894
:10365000E8081000203F20202320180008F8888860
:10366000E8081000203F200003000000C0300808D8
:103670000838000007182020221E020008F8080061
:103680000008F808203F210101213F20000808F828
:10369000080800000020203F20200000000008084B
:1036A000F8080800C08080807F00000008F888C00B
:1036B00028180800203F20012638200008F80800BC
:1036C00000000000203F20202020300008F8F800F3
:1036D000F8F80800203F003F003F200008F830C005
:1036E0000008F808203F200007183F00E0100808F5
:1036F0000810E0000F10202020100F0008F8080824
:103700000808F000203F210101010000E010080836
:103710000810E0000F18242438504F0008F888885B
:1037200088887000203F2000030C3020007088083B
:10373000080838000038202121221C00180808F849
:10374000080818000000203F2000000008F80800CA
:103750000008F808001F202020201F00087888009B
:1037600000C83808000007380E010000F80800F80B
:103770000008F800033C0700073C030008186880B5
:103780008068180820302C03032C30200838C8002B
:10379000C83808000000203F20000000100808087A
:1037A000C83808002038262120201800000000FE1C
:1037B000020202000000007F40404000000C30C0C8
:1037C00000000000000000010638C00000020202F4
:1037D000FE000000004040407F00000000000402A6
:1037E00002020400000000000000000000000000D1
:1037F00000000000808080808080808000020204C1
:1038000000000000000000000000000000008080B8
:10381000808000000019242222223F2008F8008026
:1038200080000000003F112020110E0000000080E9
:1038300080800000000E1120202011000000008078
:103840008088F800000E112020103F2000008080AA
:1038500080800000001F222222221300008080F0BE
:10386000888888180020203F2020000000008080E9
:1038700080808000006B94949493600008F800802E
:1038800080800000203F210000203F200080989889
:10389000000000000020203F2020000000000080E9
:1038A0009898000000C08080807F000008F8000029
:1038B00080808000203F24022D302000000808F87E
:1038C000000000000020203F202000008080808039
:1038D00080808000203F20003F20003F80800080CB
:1038E00080800000203F210000203F2000008080D9
:1038F00080800000001F202020201F00808000808A
:103900008000000080FFA12020110E000000008038
:1039100080808000000E112020A0FF808080800029
:103920008080800020203F21200001000000808056
:10393000808080000033242424241900008080E04B
:10394000808000000000001F202000008080000018
:1039500000808000001F202020103F2080808000F9
:103960000080808000010E30080601008080008009
:10397000008080800F300C030C300F00008080002E
:10398000808080000020312E0E3120008080800059
:103990000080808080818E70180601000080808009
:1039A000808080000021302C2221300000000000A7
:1039B000807C020200000000003F40400000000048
:1039C000FF00000000000000FF0000000002027C79
:1039D000800000000040403F0000000000060101A0
:1039E00002020404000000000000000000000000CB
:1039F0004FBB610567ACDD3F182D4454FB21E93F07
:103A00009BF681D20B73EF3F182D4454FB21F93FF5
:103A1000E2652F227F2B7A3C075C143326A6813C7B
:103A2000BDCBF07A8807703C075C143326A6913C26
:103A3000C4EB98999999C9BF711623FEC671BCBF92
:103A40006D9A74AFF2B0B3BF9AFDDE522DDEADBFFA
:103A50002F6C6A2C44B4A2BF0D5555555555D53F12
:103A6000FF8300922449C23F6E204CC5CD45B73F2D
:103A7000513DD0A0660DB13FEB0D76244B7BA93FA5
:103A800011DA22E33AAD903F000000000000000090
:103A9000B03A0008000000203800000028010008AB
:103AA000E83A0008380000206006000044010008E1
:103AB00000000000010203040102030406070809D4
:103AC00002040608000000000000000000000000E2
:103AD00000000000000000000000000000000000E6
:083AE0000000000000000000DE
:04000005080000ED02
:00000001FF
