:020000040800F2
:100000006806002089010008CD0600086B0500087D
:10001000C906000843020008B512000800000000ED
:10002000000000000000000000000000D50C0008E7
:10003000BD020008000000003D0C0008E10D0008B2
:10004000A3010008A3010008A3010008A301000800
:10005000A3010008A3010008A3010008A3010008F0
:10006000A3010008A3010008A3010008A3010008E0
:10007000A3010008A3010008A3010008A3010008D0
:10008000A3010008A3010008A3010008A3010008C0
:10009000A3010008A3010008A3010008050300084C
:1000A000A3010008A3010008A3010008A3010008A0
:1000B000A3010008A3010008A3010008A301000890
:1000C000A3010008A3010008A3010008A301000880
:1000D000A301000801120008A3010008A301000801
:1000E000A3010008A3010008A301000800F002F822
:1000F00000F03AF80AA090E8000C82448344AAF188
:100100000107DA4501D100F02FF8AFF2090EBAE885
:100110000F0013F0010F18BFFB1A43F0010318473B
:10012000BC170000DC170000103A24BF78C878C163
:10013000FAD8520724BF30C830C144BF04680C60ED
:10014000704700000023002400250026103A28BF35
:1001500078C1FBD8520728BF30C148BF0B60704739
:100160001FB51FBD10B510BD00F031F81146FFF7E7
:10017000F7FF01F0A9F800F04FF803B4FFF7F2FF22
:1001800003BC00F057F800000948804709480047C1
:10019000FEE7FEE7FEE7FEE7FEE7FEE7FEE7FEE737
:1001A000FEE7FEE704480549054A064B7047000094
:1001B000E50D0008ED00000868000020680600203A
:1001C000680200206802002070477047704775463B
:1001D00000F02CF8AE4605006946534620F00700B3
:1001E000854618B020B5FFF7DDFFBDE820404FF091
:1001F00000064FF000074FF000084FF0000B21F011
:100200000701AC46ACE8C009ACE8C009ACE8C009DD
:10021000ACE8C0098D46704710B50446AFF30080C6
:100220002046BDE81040FFF7A8BF00000048704717
:100230000800002001491820ABBEFEE7260002009E
:10024000704700BFFEE7000010B500F0C9F919497A
:10025000087001F031F81849087016480078012834
:1002600003D008460078012802D100F0AFFC1FE05F
:1002700010480078022803D00F480078012802D1E6
:1002800000F0A4FC14E00B480078032803D00A48CF
:100290000078012802D100F099FC09E005480078B7
:1002A000042803D004480078012801D100F08EFC16
:1002B00010BD00000100002000000020704700B5C4
:1002C000034603E04FF47A7000F005F8181EA3F11E
:1002D0000103F7D100BD00EBC001C9004FF0E022DF
:1002E0005161002191610521116100BF4FF0E021B2
:1002F000096901F480310029F8D004214FF0E0228F
:100300001161704710B5802000F018F801280AD15B
:100310008021054800F01BF910B90120034908703D
:10032000802000F005F810BD000801400300002007
:100330000149086070470000140401400146002094
:100340000022074B1B6803EA0102054B14331B68AC
:100350000B4013B10AB1012000E0002070470000FB
:1003600000040140002123498279002A3AD00A463C
:10037000126803689A430B461A600A1D12680368E4
:100380009A430B1D1A60027911440A6803681A43E4
:100390000A60184A0832126803689A43154B0833FA
:1003A0001A601A1D126803689A43124B0C331A60C4
:1003B0004279102A0ED11A1F126803681A430D4B96
:1003C00008331A601A1D126803681A43094B0C336C
:1003D0001A600DE00749427911440A6803681A431C
:1003E0000A6005E0027911440A6803689A430A60CA
:1003F000704700000004014030B500228B071C0F3D
:100400000F2303FA04F20B4B8C1053F82430934360
:10041000084C8D1044F8253023468C1053F82430B6
:100420008C07240F00FA04F42343024C8D1044F887
:10043000253030BD080001402DE9F041024600257D
:100440000026002000230024002791F803C00CF0B0
:100450000F0591F803C00CF0100CBCF1000F03D095
:1004600091F802C04CEA050591F800C0BCF1000FFC
:1004700031D0146800202BE04FF0010C0CFA00F38F
:10048000B1F800C00CEA03069E4220D183004FF071
:100490000F0C0CFA03F7BC4305FA03FC4CEA040406
:1004A00091F803C0BCF1280F06D14FF0010C0CFAF3
:1004B00000FCC2F814C00AE091F803C0BCF1480F78
:1004C00005D14FF0010C0CFA00FCC2F810C0401C22
:1004D0000828D1D31460B1F800C0BCF1FF0F34DD9F
:1004E000546800202EE000F1080C4FF0010808FAD3
:1004F0000CF3B1F800C00CEA03069E4221D1830040
:100500004FF00F0C0CFA03F7BC4305FA03FC4CEA5E
:10051000040491F803C0BCF1280F05D100F1080CC8
:1005200008FA0CF8C2F8148091F803C0BCF1480F27
:1005300007D100F1080C4FF0010808FA0CF8C2F8D6
:100540001080401C0828CED35460BDE8F0810246DC
:10055000002093680B400BB1012000E000207047A1
:100560000AB1016100E04161704700BFFEE7000091
:100570001FB50121042000F073FB0121084600F0A3
:100580006FFB48208DF80F008020ADF80C00032091
:100590008DF80E0003A91148FFF74EFF0721002038
:1005A000FFF72AFF8020019001208DF80A0000202B
:1005B0008DF808000C208DF8090001A8FFF7D2FE85
:1005C00017208DF8000001208DF803008DF8010040
:1005D0008DF80200684600F07BF81FBD000801405E
:1005E00010B500244FF480512B48FFF7B0FF78B9C5
:1005F0001420FFF764FE00BF4FF480512648FFF738
:10060000A6FF0028F8D01420FFF759FE012440E08F
:100610004FF400512048FFF79AFF78B91420FFF7F4
:100620004EFE00BF4FF400511B48FFF790FF00281B
:10063000F8D01420FFF743FE02242AE04FF4804153
:100640001548FFF784FF78B91420FFF738FE00BF84
:100650004FF480411048FFF77AFF0028F8D01420AB
:10066000FFF72DFE032414E04FF400410A48FFF782
:100670006EFF70B91420FFF722FE00BF4FF4004157
:100680000548FFF764FF0028F8D01420FFF717FE95
:100690000424204610BD0000000C014008B548208D
:1006A0008DF803004FF47040ADF8000003208DF882
:1006B00002000121082000F0D3FA69460148FFF743
:1006C000BBFE08BD000C014000BFFEE77047000004
:1006D00070B5002100230F22C47804B3154C2468A0
:1006E00004F4E064C4F5E064210AC1F10403CA40E3
:1006F000447804FA03F184781440214309010E4C34
:100700000678A155047804F01F050124AC40057853
:100710006D11AD0005F1E025C5F8004109E0047850
:1007200004F01F050124AC40044D0678761145F80D
:10073000264070BD0CED00E000E400E080E100E048
:1007400070B500240EE00021204600F0E6F80025F8
:1007500004E0002000F050F9681CC5B2802DF8DBE1
:10076000601CC4B2082CEEDB70BD000008B501218E
:10077000082000F075FA14208DF8030003208DF88E
:1007800002004FF48070ADF8000069460A48FFF798
:1007900053FE4FF40070ADF8000069460648FFF7BD
:1007A0004BFE012211020448FFF7DAFE012251023A
:1007B0000148FFF7D5FE08BD000C014070B50546A5
:1007C000002415E08020204100EA05024FF400716A
:1007D0000E48FFF7C5FE012211020C48FFF7C0FECC
:1007E00000224FF480710948FFF7BAFE601CC4B2C2
:1007F000082CE7DB012211020448FFF7B1FE0022BA
:100800004FF480710148FFF7ABFE70BD000C014052
:1008100010B5012251020A48FFF7A2FE012211027F
:100820000748FFF79DFE00224FF400710448FFF7D0
:1008300097FE00224FF480710148FFF791FE10BD32
:10084000000C014010B500224FF400710648FFF77C
:1008500087FE012211020448FFF782FE01225102A5
:100860000148FFF77DFE10BD000C014070B500246B
:1008700006E0002500E06D1CB5F57A7FFBD3641C13
:10088000B4F57A7FF5D3FFF771FFAE2000F0A4F83E
:10089000D52000F0A1F8802000F09EF8A82000F0FC
:1008A0009BF83F2000F098F8D32000F095F8002046
:1008B00000F092F8402000F08FF8A12000F08CF8B2
:1008C000C82000F089F8DA2000F086F8122000F045
:1008D00083F8812000F080F8CF2000F07DF8D92047
:1008E00000F07AF8F12000F077F8DB2000F074F8DF
:1008F000302000F071F8A42000F06EF8A62000F07F
:100900006BF88D2000F068F8142000F065F8AF2037
:1009100000F062F8FFF714FF70BD70B505460C4695
:1009200045F0B00000F058F8102141EA141000F032
:1009300053F804F00F0000F04FF870BD2DE9F041BE
:1009400005460E461746721ED206110E6A1E520644
:10095000100EFFF7E2FF002409E0A7F12001134A7F
:1009600002EB0111085D00F047F8601CC4B2082CCE
:10097000F3DB721ED206110E6A1E012303EB420244
:10098000D0B2FFF7CAFF00240BE0A7F12001074A0D
:1009900002EB011204F10801505C00F02DF8601C1C
:1009A000C4B2082CF1DBBDE8F0810000EC120008B5
:1009B0002DE9F04107460E461546002407E02A5D62
:1009C0003019C1B23846FFF7B9FF601CC4B2285DC8
:1009D0000028F4D1BDE8F08110B50446FFF718FFF8
:1009E0007820FFF7EBFE0020FFF7E8FE2046FFF738
:1009F000E5FEFFF727FF10BD10B50446FFF708FF1F
:100A00007820FFF7DBFE4020FFF7D8FE2046FFF7F7
:100A1000D5FEFFF717FF10BD00B589B001210846CC
:100A200000F00EF90121042000F01AF918208DF8C9
:100A300007000120ADF8040003208DF8060001A98D
:100A40005148FFF7F9FC18208DF807000220ADF897
:100A5000040003208DF8060001A94B48FFF7ECFCC9
:100A600018208DF807000420ADF8040003208DF84D
:100A7000060001A94448FFF7DFFC18208DF80700A5
:100A80000820ADF8040003208DF8060001A93E48B7
:100A9000FFF7D2FC4FF0804000F0ECF90020ADF8F9
:100AA0001E00ADF81A0042F20F70ADF81C0047208E
:100AB000ADF8180000208DF8200006A94FF0804006
:100AC00000F04CFB02A800F036FB6020ADF80800F7
:100AD0000020ADF810000120ADF80A000020ADF8AC
:100AE0000E0002A94FF0804000F0CAF90821C806A4
:100AF00000F012FA6020ADF808000020ADF81000F8
:100B00000120ADF80A000020ADF80E0002A94FF058
:100B1000804000F00BFA0821C80600F059FA602066
:100B2000ADF808000020ADF810000120ADF80A0073
:100B30000020ADF80E0002A94FF0804000F056FAF8
:100B40000821C80600F0A2FA6020ADF808000020D5
:100B5000ADF810000120ADF80A000020ADF80E003D
:100B600002A94FF0804000F09BFA0821C80600F06F
:100B7000D5FA0121880700F065F90121880700F006
:100B80006DF909B000BD00000008014010B5044631
:100B900021464FF0804000F0D8FA10BD10B5044651
:100BA00021464FF0804000F0D2FA10BD10B5044647
:100BB00021464FF0804000F0CCFA10BD10B504463D
:100BC00021464FF0804000F0C6FA10BD10B540F24B
:100BD000DC50FFF7DBFF40F2DC50FFF7DFFF40F2B5
:100BE000DC50FFF7E3FF40F2DC50FFF7E7FF0FA216
:100BF00001210846FFF7DCFE40F2DC50FFF75FFB07
:100C00004FF4FA70FFF7C2FF4FF4FA70FFF7C6FF18
:100C10004FF4FA70FFF7CAFF4FF4FA70FFF7CEFFF8
:100C200004A201210846FFF7C3FE10BD6F70656E78
:100C300000000000636C6F736500000070470000E7
:100C400029B1064AD2690243044BDA6104E0034A3F
:100C5000D2698243014BDA61704700000010024004
:100C600029B1064A92690243044B9A6104E0034A9F
:100C700092698243014B9A61704700000010024064
:100C800010B500F029F812490870084600780128CC
:100C900002D1FFF79BFF1AE00D480078022802D12D
:100CA000FFF794FF13E00A480078032802D1FFF70A
:100CB0008DFF0CE006480078042802D1FFF786FF7C
:100CC00005E003480078052801D1FFF77FFF10BD3C
:100CD00002000020704700000148007870470000C3
:100CE0000400002010B5FFF797FEFFF7BFFDFFF7E8
:100CF000D5FCFFF73DFC10BD10B500F001F810BDAC
:100D00000CB50020019000903348006840F480301A
:100D10003149086000BF3048006800F4003000909E
:100D20000198401C0190009818B90198B0F5A06F87
:100D3000F1D12948006800F4003010B10120009082
:100D400001E0002000900098012843D1234800686A
:100D500040F01000214908600846006820F00300B8
:100D600008600846006840F0020008601A484068C1
:100D7000194948600846406848600846406840F4A1
:100D8000806048600846406820F47C10486008464F
:100D9000406840F4E81048600846006840F0807001
:100DA000086000BF0C48006800F000700028F9D00F
:100DB0000948406820F00300074948600846406839
:100DC00040F00200486000BF0348406800F00C009B
:100DD0000828F9D10CBD000000100240002002409C
:100DE0007047000010B51348006840F00100114939
:100DF000086008464068104908400E4948600846A7
:100E000000680E4908400B4908600846006820F455
:100E1000802008600846406820F4FE0048604FF4D7
:100E20001F008860FFF768FF4FF00060044908600A
:100E300010BD0000001002400000FFF8FFFFF6FEAA
:100E400008ED00E021B1028842F08002028004E057
:100E500002884FF67F731A400280704721B10288E2
:100E600042F00102028004E002884FF6FE731A404D
:100E70000280704701894FF6F87211400181704776
:100E800070B5002400220023058C4FF6FE76354015
:100E90000584028C8388048B4FF68F752C40B51E19
:100EA0002C400D882C43751E2A400D892A434D88FD
:100EB0002A43144DA8420BD0134DA84208D0134D1D
:100EC000A84205D0124DA84202D0124DA84213D11B
:100ED0004FF6F7752A404D892A434FF6FB752A4095
:100EE0008D882A434FF6FF652B404FF6FF552B4068
:100EF0008D892B43CD892B4383800483CD888586C0
:100F0000028470BD002C01400034014000400140CB
:100F100000440140004801400A460021018B4FF681
:100F2000F7731940114301837047000070B5002426
:100F300000220023058C4FF6EF7635400584028CA5
:100F40008388048B48F6FF752C404FF6FF452C40F4
:100F50000D884FF6FF7606EA05252C434FF6DF7520
:100F60002A400D8906EA05152A434D8806EA05152B
:100F70002A43154DA84202D0144DA8421DD14FF668
:100F80007F752A404D894FF6FF7606EA05152A43FC
:100F90004FF6BF752A408D8806EA05152A434FF69D
:100FA000FF352B404FF2FF752B408D8906EA8505F2
:100FB0002B43CD8906EA85052B4383800483CD88A6
:100FC0000587028470BD0000002C01400034014000
:100FD0000A460021018B4FF2FF7319404FF6FF7351
:100FE00003EA0223194301837047000070B500240F
:100FF00000220023058C4FF6FF6635400584028CE5
:101000008388848B4FF68F752C404FF6FC752C40EF
:101010000D882C434FF6FF552A400D894FF6FF7679
:1010200006EA05252A434D8806EA05252A43154D7B
:10103000A84202D0144DA8421DD14FF2FF752A409C
:101040004D894FF6FF7606EA05252A434FF6FF3510
:101050002A408D8806EA05252A434EF6FF752B4067
:101060004DF6FF752B408D8906EA05152B43CD897A
:1010700006EA05152B4383808483CD888587028407
:1010800070BD0000002C0140003401400A460021E0
:10109000818B4FF6F773194011438183704700002D
:1010A00070B5002200230024058C4EF6FF763540F3
:1010B0000584038C8488828B48F6FF752A404FF69E
:1010C000FF452A400D884FF6FF7606EA05252A439C
:1010D0004DF6FF752B400D8906EA05352B434D88EB
:1010E00006EA05352B430B4DA84202D00A4DA84213
:1010F00008D14BF6FF752C408D894FF6FF7606EA36
:1011000085152C4384808283CD88A0F840500384C9
:1011100070BD0000002C0140003401400A4600214F
:10112000818B4FF2FF7319404FF6FF7303EA0223DE
:101130001943818370470021018041808180C180F3
:10114000018141818181C18170478186704701871A
:10115000704781877047A0F84010704700220288CE
:101160001D4B98420ED01D4B98420BD0B0F1804FD2
:1011700008D01B4B984205D01A4B984202D01A4B0C
:10118000984204D14FF68F731A404B881A43174B7D
:10119000984207D0164B984204D04FF6FF431A40AE
:1011A000CB881A4302808B8883850B8803850A4B82
:1011B00098420BD0094B984208D00E4B984205D06C
:1011C0000D4B984202D00D4B984201D10B7A038609
:1011D0000123838270470000002C0140003401404D
:1011E0000004004000080040000C004000100040D7
:1011F000001400400040014000440140004801400C
:1012000010B540F22551094800F025F801280CD10D
:10121000064800F04AF806490870012005490870A0
:1012200040F22551014800F007F810BD0038014098
:10123000040000200500002010B50022002340F625
:101240006A14A14200D100BF0A1201249440A3B243
:10125000DC43048010BD70B5024600240023002545
:10126000002040F66A16B14200D100BFC1F342151A
:1012700001F01F03012606FA03F3012D02D196891E
:10128000334006E0022D02D1168A334001E0968AEF
:1012900033400C12012606FA04F41688344013B1C8
:1012A0000CB1012000E0002070BD01468888C0F329
:1012B0000800704700BFFEE7024908780021014A94
:1012C0001170704703000020FFF70CFD05A20121FB
:1012D0000846FFF76DFB03E0FEF7B6FFFFF7D0FC13
:1012E000FAE70000636C6F73650000000000000007
:1012F000000000000000000000000000000000F8F6
:1013000000000000000000333000000000100C0658
:10131000100C0600000000000000000040C07840F3
:10132000C0784000043F04043F040400007088FCBF
:1013300008300000001820FF211E0000F008F00017
:10134000E018000000211C031E211E0000F0088888
:10135000700000001E2123241927211010160E00F2
:10136000000000000000000000000000000000E09D
:1013700018040200000000071820400000020418B2
:10138000E00000000040201807000000404080F00E
:10139000804040000202010F01020200000000F044
:1013A000000000000101011F010101000000000018
:1013B0000000000080B0700000000000000000008D
:1013C0000000000000010101010101010000000016
:1013D00000000000003030000000000000000000AD
:1013E00080601804006018060100000000E010088A
:1013F0000810E000000F102020100F00001010F85F
:10140000000000000020203F20200000007008089D
:10141000088870000030282422213000003008881D
:10142000884830000018202020110E000000C02045
:1014300010F8000000070424243F240000F8088866
:10144000880808000019212020110E0000E01088F3
:1014500088180000000F112020110E000038080825
:10146000C83808000000003F000000000070880835
:1014700008887000001C222121221C0000E01008B6
:101480000810E0000000312222110F00000000C00F
:10149000C0000000000000303000000000000080AC
:1014A000000000000000806000000000000080409C
:1014B00020100800000102040810200040404040B5
:1014C0004040400004040404040404000008102008
:1014D000408000000020100804020100007048084D
:1014E0000808F0000000003036010000C030C828B5
:1014F000E810E0000718272423140B000000C03870
:10150000E0000000203C23020227382008F88888E9
:1015100088700000203F202020110E00C0300808F5
:1015200008083800071820202010080008F80808CC
:101530000810E000203F202020100F0008F88888C5
:10154000E8081000203F20202320180008F8888891
:10155000E8081000203F200003000000C030080809
:101560000838000007182020221E020008F8080092
:101570000008F808203F210101213F20000808F859
:10158000080800000020203F20200000000008087C
:10159000F8080800C08080807F00000008F888C03C
:1015A00028180800203F20012638200008F80800ED
:1015B00000000000203F20202020300008F8F80024
:1015C000F8F80800203F003F003F200008F830C036
:1015D0000008F808203F200007183F00E010080826
:1015E0000810E0000F10202020100F0008F8080855
:1015F0000808F000203F210101010000E010080868
:101600000810E0000F18242438504F0008F888888C
:1016100088887000203F2000030C3020007088086C
:10162000080838000038202121221C00180808F87A
:10163000080818000000203F2000000008F80800FB
:101640000008F808001F202020201F0008788800CC
:1016500000C83808000007380E010000F80800F83C
:101660000008F800033C0700073C030008186880E6
:101670008068180820302C03032C30200838C8005C
:10168000C83808000000203F2000000010080808AB
:10169000C83808002038262120201800000000FE4D
:1016A000020202000000007F40404000000C30C0F9
:1016B00000000000000000010638C0000002020225
:1016C000FE000000004040407F00000000000402D7
:1016D0000202040000000000000000000000000002
:1016E00000000000808080808080808000020204F2
:1016F00000000000000000000000000000008080EA
:10170000808000000019242222223F2008F8008057
:1017100080000000003F112020110E00000000801A
:1017200080800000000E11202020110000000080A9
:101730008088F800000E112020103F2000008080DB
:1017400080800000001F222222221300008080F0EF
:10175000888888180020203F20200000000080801A
:1017600080808000006B94949493600008F800805F
:1017700080800000203F210000203F2000809898BA
:10178000000000000020203F20200000000000801A
:101790009898000000C08080807F000008F800005A
:1017A00080808000203F24022D302000000808F8AF
:1017B000000000000020203F20200000808080806A
:1017C00080808000203F20003F20003F80800080FC
:1017D00080800000203F210000203F20000080800A
:1017E00080800000001F202020201F0080800080BB
:1017F0008000000080FFA12020110E00000000806A
:1018000080808000000E112020A0FF80808080005A
:101810008080800020203F21200001000000808087
:10182000808080000033242424241900008080E07C
:10183000808000000000001F202000008080000049
:1018400000808000001F202020103F20808080002A
:101850000080808000010E3008060100808000803A
:10186000008080800F300C030C300F00008080005F
:10187000808080000020312E0E312000808080008A
:101880000080808080818E7018060100008080803A
:10189000808080000021302C2221300000000000D8
:1018A000807C020200000000003F40400000000079
:1018B000FF00000000000000FF0000000002027CAA
:1018C000800000000040403F0000000000060101D1
:1018D000020204040000000000000000FC180008E0
:1018E000000000200800000028010008041900087A
:1018F000080000206006000044010008000000000D
:0419000000000000E3
:04000005080000ED02
:00000001FF
