:020000040800F2
:10000000800600208901000831070008B3050008B8
:100010002D07000843020008EB160008000000004E
:10002000000000000000000000000000DD0E0008DD
:100030009102000800000000650D0008DD100008B6
:10004000A3010008A3010008A3010008A301000800
:10005000A3010008A3010008A3010008A3010008F0
:10006000A3010008A3010008A3010008A3010008E0
:10007000A3010008A3010008A3010008A3010008D0
:10008000A3010008A3010008A3010008A3010008C0
:10009000A3010008A3010008A3010008D902000879
:1000A000A3010008A3010008A3010008A3010008A0
:1000B000A3010008A3010008A3010008A301000890
:1000C000A3010008A3010008A3010008A301000880
:1000D000A3010008FD140008A3010008A301000803
:1000E000A3010008A3010008A301000800F002F822
:1000F00000F03AF80AA090E8000C82448344AAF188
:100100000107DA4501D100F02FF8AFF2090EBAE885
:100110000F0013F0010F18BFFB1A43F0010318473B
:10012000041D0000241D0000103A24BF78C878C1C7
:10013000FAD8520724BF30C830C144BF04680C60ED
:10014000704700000023002400250026103A28BF35
:1001500078C1FBD8520728BF30C148BF0B60704739
:100160001FB51FBD10B510BD00F031F81146FFF7E7
:10017000F7FF01F04BFB00F04FF803B4FFF7F2FF7D
:1001800003BC00F057F800000948804709480047C1
:10019000FEE7FEE7FEE7FEE7FEE7FEE7FEE7FEE737
:1001A000FEE7FEE704480549054A064B7047000094
:1001B000E1100008ED00000880000020800600200B
:1001C000800200208002002070477047704775460B
:1001D00000F02CF8AE4605006946534620F00700B3
:1001E000854618B020B5FFF7DDFFBDE820404FF091
:1001F00000064FF000074FF000084FF0000B21F011
:100200000701AC46ACE8C009ACE8C009ACE8C009DD
:10021000ACE8C0098D46704710B50446AFF30080C6
:100220002046BDE81040FFF7A8BF00000048704717
:100230001C00002001491820ABBEFEE7260002008A
:10024000704700BFFEE7000010B500F0FBF90F4952
:10025000087008460078012802D100F0F3FC13E092
:100260000A480078022802D100F010FD0CE007488F
:100270000078032802D100F02FFD05E00348007844
:10028000042801D100F04CFD10BD00001400002036
:10029000704700B5034603E04FF47A7000F005F8AC
:1002A000181EA3F10103F7D100BD00EBC001C90086
:1002B0004FF0E0225161002191610521116100BFE1
:1002C0004FF0E021096901F480310029F8D00421C0
:1002D0004FF0E0221161704710B5202000F052F875
:1002E00001280BD12021224800F055F910B9012036
:1002F00020490870202000F03FF833E0402000F053
:1003000041F801280BD14021194800F044F910B9F7
:10031000022018490870402000F02EF822E08020CA
:1003200000F030F801280BD18021114800F033F99A
:1003300010B903200F490870802000F01DF811E06B
:100340004FF4807000F01EF801280BD1010208481C
:1003500000F021F910B90420064908704FF48070AC
:1003600000F00AF80348007801F0C2F910BD00005F
:100370000008014017000020014908607047000094
:1003800014040140014600200022074B1B6803EAC9
:100390000102054B14331B680B4013B10AB1012055
:1003A00000E00020704700000004014000212349C4
:1003B0008279002A3AD00A46126803689A430B46AB
:1003C0001A600A1D126803689A430B1D1A600279AD
:1003D00011440A6803681A430A60184A083212680E
:1003E00003689A43154B08331A601A1D1268036894
:1003F0009A43124B0C331A604279102A0ED11A1FFD
:10040000126803681A430D4B08331A601A1D1268EC
:1004100003681A43094B0C331A600DE0074942790F
:1004200011440A6803681A430A6005E0027911441E
:100430000A6803689A430A6070470000000401409C
:1004400030B500228B071C0F0F2303FA04F20B4B6D
:100450008C1053F824309343084C8D1044F8253009
:1004600023468C1053F824308C07240F00FA04F430
:100470002343024C8D1044F8253030BD0800014064
:100480002DE9F0410246002500260020002300242B
:10049000002791F803C00CF00F0591F803C00CF091
:1004A000100CBCF1000F03D091F802C04CEA050516
:1004B00091F800C0BCF1000F31D0146800202BE08F
:1004C0004FF0010C0CFA00F3B1F800C00CEA03067F
:1004D0009E4220D183004FF00F0C0CFA03F7BC436F
:1004E00005FA03FC4CEA040491F803C0BCF1280FA0
:1004F00006D14FF0010C0CFA00FCC2F814C00AE05F
:1005000091F803C0BCF1480F05D14FF0010C0CFA73
:1005100000FCC2F810C0401C0828D1D31460B1F808
:1005200000C0BCF1FF0F34DD546800202EE000F164
:10053000080C4FF0010808FA0CF3B1F800C00CEAFF
:1005400003069E4221D183004FF00F0C0CFA03F7F3
:10055000BC4305FA03FC4CEA040491F803C0BCF167
:10056000280F05D100F1080C08FA0CF8C2F8148025
:1005700091F803C0BCF1480F07D100F1080C4FF00F
:10058000010808FA0CF8C2F81080401C0828CED3E5
:100590005460BDE8F0810246002093680B400BB127
:1005A000012000E0002070470AB1016100E04161D4
:1005B000704700BFFEE700001FB50121042000F0D6
:1005C000E3FB0121084600F0DFFB48208DF80F0017
:1005D0004FF4F070ADF80C0003208DF80E0003A965
:1005E0001748FFF74DFF07210020FFF729FF0621DD
:1005F0000020FFF725FF05210020FFF721FF08213C
:100600000020FFF71DFF4FF4F070019001208DF8DE
:100610000A0000208DF8080010208DF8090001A8BC
:10062000FFF7C4FE17208DF8000001208DF80300AD
:100630008DF801008DF80200684600F07BF81FBDC0
:100640000008014010B500244FF480512B48FFF7FB
:10065000A2FF78B91420FFF71CFE00BF4FF48051B1
:100660002648FFF798FF0028F8D01420FFF711FE66
:10067000012440E04FF400512048FFF78CFF78B987
:100680001420FFF706FE00BF4FF400511B48FFF790
:1006900082FF0028F8D01420FFF7FBFD02242AE097
:1006A0004FF480411548FFF776FF78B91420FFF723
:1006B000F0FD00BF4FF480411048FFF76CFF0028A9
:1006C000F8D01420FFF7E5FD032414E04FF40041B7
:1006D0000A48FFF760FF70B91420FFF7DAFD00BF8A
:1006E0004FF400410548FFF756FF0028F8D01420CA
:1006F000FFF7CFFD0424204610BD0000000C014090
:1007000008B548208DF803004FF47040ADF80000A4
:1007100003208DF802000121082000F035FB694616
:100720000148FFF7ADFE08BD000C014000BFFEE729
:100730007047000070B5002100230F22C47804B375
:10074000154C246804F4E064C4F5E064210AC1F1A6
:100750000403CA40447804FA03F184781440214326
:1007600009010E4C0678A155047804F01F050124F8
:10077000AC4005786D11AD0005F1E025C5F80041EC
:1007800009E0047804F01F050124AC40044D06780C
:10079000761145F8264070BD0CED00E000E400E065
:1007A00080E100E002490143024A11607047000005
:1007B0000000FA050CED00E070B500240EE0002109
:1007C000204600F0E6F8002504E0002000F050F993
:1007D000681CC5B2802DF8DB601CC4B2082CEEDBAF
:1007E00070BD000008B50121082000F0CDFA1420EA
:1007F0008DF8030003208DF802004FF48070ADF8EF
:10080000000069460A48FFF73BFE4FF40070ADF860
:10081000000069460648FFF733FE01221102044832
:10082000FFF7C2FE012251020148FFF7BDFE08BDDD
:10083000000C014070B50546002415E080202041E1
:1008400000EA05024FF400710E48FFF7ADFE0122E9
:1008500011020C48FFF7A8FE00224FF480710948EE
:10086000FFF7A2FE601CC4B2082CE7DB01221102D4
:100870000448FFF799FE00224FF480710148FFF70A
:1008800093FE70BD000C014010B5012251020A48D0
:10089000FFF78AFE012211020748FFF785FE0022BA
:1008A0004FF400710448FFF77FFE00224FF480717F
:1008B0000148FFF779FE10BD000C014010B5002281
:1008C0004FF400710648FFF76FFE01221102044841
:1008D000FFF76AFE012251020148FFF765FE10BDD5
:1008E000000C014070B5002406E0002500E06D1CFE
:1008F000B5F57A7FFBD3641CB4F57A7FF5D3FFF7A7
:1009000071FFAE2000F0A4F8D52000F0A1F88020FF
:1009100000F09EF8A82000F09BF83F2000F098F827
:10092000D32000F095F8002000F092F8402000F06D
:100930008FF8A12000F08CF8C82000F089F8DA20A8
:1009400000F086F8122000F083F8812000F080F893
:10095000CF2000F07DF8D92000F07AF8F12000F0E7
:1009600077F8DB2000F074F8302000F071F8A42054
:1009700000F06EF8A62000F06BF88D2000F068F80B
:10098000142000F065F8AF2000F062F8FFF714FFC4
:1009900070BD70B505460C4645F0B00000F058F843
:1009A000102141EA141000F053F804F00F0000F099
:1009B0004FF870BD2DE9F04105460E461746721EF0
:1009C000D206110E6A1E5206100EFFF7E2FF002437
:1009D00009E0A7F12001134A02EB0111085D00F0C4
:1009E00047F8601CC4B2082CF3DB721ED206110E4D
:1009F0006A1E012303EB4202D0B2FFF7CAFF0024B4
:100A00000BE0A7F12001074A02EB011204F10801F3
:100A1000505C00F02DF8601CC4B2082CF1DBBDE87E
:100A2000F0810000341800082DE9F04107460E4619
:100A30001546002407E02A5D3019C1B23846FFF799
:100A4000B9FF601CC4B2285D0028F4D1BDE8F08174
:100A500010B50446FFF718FF7820FFF7EBFE0020E3
:100A6000FFF7E8FE2046FFF7E5FEFFF727FF10BD82
:100A700010B50446FFF708FF7820FFF7DBFE4020A3
:100A8000FFF7D8FE2046FFF7D5FEFFF717FF10BD92
:100A900000B589B00121084600F066F90121042063
:100AA00000F072F918208DF807000120ADF804005D
:100AB00003208DF8060001A95148FFF7E1FC18203A
:100AC0008DF807000220ADF8040003208DF8060021
:100AD00001A94B48FFF7D4FC18208DF8070004202B
:100AE000ADF8040003208DF8060001A94448FFF783
:100AF000C7FC18208DF807000820ADF8040003207B
:100B00008DF8060001A93E48FFF7BAFC4FF080407F
:100B100000F02EFB0020ADF81E00ADF81A0042F2E6
:100B20000F70ADF81C004720ADF8180000208DF8BC
:100B3000200006A94FF0804000F08EFC02A800F0D3
:100B400078FC6020ADF808000020ADF8100001200E
:100B5000ADF80A000020ADF80E0002A94FF0804069
:100B600000F00CFB0821C80600F054FB6020ADF833
:100B700008000020ADF810000120ADF80A000020A8
:100B8000ADF80E0002A94FF0804000F04DFB0821A7
:100B9000C80600F09BFB6020ADF808000020ADF80F
:100BA00010000120ADF80A000020ADF80E0002A9E7
:100BB0004FF0804000F098FB0821C80600F0E4FBED
:100BC0006020ADF808000020ADF810000120ADF85D
:100BD0000A000020ADF80E0002A94FF0804000F09E
:100BE000DDFB0821C80600F017FC0121880700F092
:100BF000A7FA0121880700F0AFFA09B000BD000094
:100C00000008014010B5044621464FF0804000F036
:100C10001AFC10BD10B5044621464FF0804000F08C
:100C200014FC10BD10B5044621464FF0804000F082
:100C30000EFC10BD10B5044621464FF0804000F078
:100C400008FC10BD10B540F2DC50FFF7DBFF0AA234
:100C500001210846FFF7E8FE4FF47A70FFF719FB11
:100C60004FF4FA70FFF7CEFFFFF7A6FD05A20121B2
:100C70000846FFF7D9FE10BD52656379636C616267
:100C80006C650000636C6F736500000010B540F286
:100C9000DC50FFF7BFFF0AA201210846FFF7C4FEA0
:100CA0004FF47A70FFF7F5FA4FF4FA70FFF7B2FFDE
:100CB000FFF782FD06A201210846FFF7B5FE10BD31
:100CC000556E72656379636C61626C65000000004B
:100CD000636C6F736500000010B540F2DC50FFF7E5
:100CE000A1FF0AA201210846FFF79EFE4FF47A7089
:100CF000FFF7CFFA4FF4FA70FFF794FFFFF75CFDB0
:100D000005A201210846FFF78FFE10BD48617A61F8
:100D100072646F7573000000636C6F736500000090
:100D200010B540F2DC50FFF785FF0AA2012108460A
:100D3000FFF77AFE4FF47A70FFF7ABFA4FF4FA70D0
:100D4000FFF778FFFFF738FD04A201210846FFF7FF
:100D50006BFE10BD4F74686572000000636C6F73AA
:100D6000650000007047000029B1064AD2690243BD
:100D7000044BDA6104E0034AD2698243014BDA6131
:100D8000704700000010024029B1064A92690243F0
:100D9000044B9A6104E0034A92698243014B9A61D1
:100DA000704700000010024030B5002100220024EE
:100DB00000232D4D6D6805F00C0121B1042905D0EB
:100DC000082923D105E0294D056022E0274D056063
:100DD0001FE0254D6D6805F47012234D6D6805F414
:100DE0008034022505EB92421CB9214D5543056024
:100DF0000BE01D4D6D6805F400351DB11C4D5543CC
:100E0000056002E0194D5543056002E0174D05608D
:100E100000BF00BF144D6D6805F0F0010909154DC4
:100E20006B5C0568DD4045600F4D6D6805F4E06161
:100E3000090A104D6B5C4568DD4085600A4D6D68A0
:100E400005F46051C90A0B4D6B5C4568DD40C56017
:100E5000054D6D6805F44041890B074D6B5CC56815
:100E6000B5FBF3F5056130BD0010024000127A00B9
:100E700000093D00000000201000002010B500F027
:100E80002FF814490870144800780978884200D176
:100E900010BD1048007810490870084600780128F5
:100EA00002D1FFF7CFFE13E00B480078022802D1F1
:100EB000FFF7ECFE0CE008480078032802D1FFF7AA
:100EC0000BFF05E004480078042801D1FFF728FF54
:100ED00000BFDDE71500002016000020704700006D
:100EE00001480078704700001800002000B587B066
:100EF00001218803FFF748FF01210420FFF744FF89
:100F000018208DF817004FF40070ADF8140003207E
:100F10008DF8160005A92148FFF7B2FA48208DF890
:100F200017004FF48060ADF8140003208DF8160010
:100F300005A91A48FFF7A4FA4FF4165001900020B3
:100F4000ADF810000C20ADF80E000020ADF80C003C
:100F5000ADF80A00ADF8080001A9114800F054FBF3
:100F6000012240F225510E4800F029FB4FF4A06009
:100F7000FFF718FC25208DF8180001208DF81B00C4
:100F80008DF819008DF81A0006A8FFF7D3FB012190
:100F9000034800F0DEFA07B000BD00000008014081
:100FA0000038014010B5FFF773FDFFF79BFCFFF71A
:100FB000A7FBFFF701FBFFF799FF10BD10B500F08D
:100FC00001F810BD0CB50020019000903348006876
:100FD00040F480303149086000BF3048006800F4B8
:100FE000003000900198401C0190009818B90198B9
:100FF000B0F5A06FF1D12948006800F4003010B1BD
:101000000120009001E0002000900098012843D1C9
:101010002348006840F01000214908600846006835
:1010200020F0030008600846006840F002000860F5
:101030001A484068194948600846406848600846B0
:10104000406840F4806048600846406820F47C10A6
:1010500048600846406840F4E81048600846006868
:1010600040F08070086000BF0C48006800F000701D
:101070000028F9D00948406820F00300074948607B
:101080000846406840F00200486000BF03484068DE
:1010900000F00C000828F9D10CBD0000001002403F
:1010A0000020024010B505A201210320FFF7BCFC7F
:1010B00006A201210420FFF7B7FC10BD3530303601
:1010C00032313031303162747A00000035303036E0
:1010D0003231303130386C667A00000070470000E1
:1010E00010B51348006840F0010011490860084637
:1010F0004068104908400E494860084600680E499B
:1011000008400B4908600846006820F48020086009
:101110000846406820F4FE0048604FF41F008860D5
:10112000FFF74CFF4FF000600449086010BD00005D
:10113000001002400000FFF8FFFFF6FE08ED00E09F
:1011400021B1028842F08002028004E002884FF65A
:101150007F731A400280704721B1028842F0010279
:10116000028004E002884FF6FE731A400280704746
:1011700001894FF6F87211400181704770B5002463
:1011800000220023058C4FF6FE7635400584028C44
:101190008388048B4FF68F752C40B51E2C400D882C
:1011A0002C43751E2A400D892A434D882A43144D2D
:1011B000A8420BD0134DA84208D0134DA84205D029
:1011C000124DA84202D0124DA84213D14FF6F77526
:1011D0002A404D892A434FF6FB752A408D882A43C1
:1011E0004FF6FF652B404FF6FF552B408D892B4363
:1011F000CD892B4383800483CD888586028470BD8E
:10120000002C0140003401400040014000440140F6
:10121000004801400A460021018B4FF6F773194040
:10122000114301837047000070B5002400220023A1
:10123000058C4FF6EF7635400584028C8388048B4D
:1012400048F6FF752C404FF6FF452C400D884FF6B1
:10125000FF7606EA05252C434FF6DF752A400D89F7
:1012600006EA05152A434D8806EA05152A43154D59
:10127000A84202D0144DA8421DD14FF67F752A40D6
:101280004D894FF6FF7606EA05152A434FF6BF75DE
:101290002A408D8806EA05152A434FF6FF352B4074
:1012A0004FF2FF752B408D8906EA85052B43CD89CA
:1012B00006EA85052B4383800483CD880587028455
:1012C00070BD0000002C0140003401400A4600219E
:1012D000018B4FF2FF7319404FF6FF7303EA0223AD
:1012E000194301837047000070B5002400220023D9
:1012F000058C4FF6FF6635400584028C8388848B0D
:101300004FF68F752C404FF6FC752C400D882C4302
:101310004FF6FF552A400D894FF6FF7606EA052560
:101320002A434D8806EA05252A43154DA84202D0D6
:10133000144DA8421DD14FF2FF752A404D894FF63A
:10134000FF7606EA05252A434FF6FF352A408D88A9
:1013500006EA05252A434EF6FF752B404DF6FF752C
:101360002B408D8906EA05152B43CD8906EA051524
:101370002B4383808483CD888587028470BD0000E1
:10138000002C0140003401400A460021818B4FF6B9
:10139000F7731940114381837047000070B5002234
:1013A00000230024058C4EF6FF7635400584038C1F
:1013B0008488828B48F6FF752A404FF6FF452A4005
:1013C0000D884FF6FF7606EA05252A434DF6FF7590
:1013D0002B400D8906EA05352B434D8806EA053575
:1013E0002B430B4DA84202D00A4DA84208D14BF620
:1013F000FF752C408D894FF6FF7606EA85152C4344
:1014000084808283CD88A0F84050038470BD0000A2
:10141000002C0140003401400A460021818B4FF22C
:10142000FF7319404FF6FF7303EA022319438183C8
:1014300070470021018041808180C180018141810C
:101440008181C1817047818670470187704781879C
:101450007047A0F840107047002202881D4B984248
:101460000ED01D4B98420BD0B0F1804F08D01B4BD3
:10147000984205D01A4B984202D01A4B984204D198
:101480004FF68F731A404B881A43174B984207D078
:10149000164B984204D04FF6FF431A40CB881A43AC
:1014A00002808B8883850B8803850A4B98420BD07A
:1014B000094B984208D00E4B984205D00D4B9842EC
:1014C00002D00D4B984201D10B7A0386012383820F
:1014D00070470000002C014000340140000400402F
:1014E00000080040000C00400010004000140040C4
:1014F00000400140004401400048014010B540F266
:101500002551094800F031F801280CD1064800F0B7
:10151000E7F80649087001200549087040F2255196
:10152000014800F007F810BD003801401800002005
:101530001900002010B50022002340F66A14A142D1
:1015400000D100BF0A1201249440A3B2DC430480FE
:1015500010BD21B1828942F40052828104E0828967
:101560004DF6FF731A408281704770B50246002421
:1015700000230025002040F66A16B14200D100BFCA
:10158000C1F3421501F01F03012606FA03F3012DF2
:1015900002D19689334006E0022D02D1168A3340EB
:1015A00001E0968A33400C12012606FA04F41688EC
:1015B000344013B10CB1012000E0002070BDF0B543
:1015C0000346002400260025002040F66A17B94291
:1015D00000D100BF1846C1F3421401F01F060127D5
:1015E00007FA06F5012C01D10C3004E0022C01D1E0
:1015F000103000E014301AB107682F43076002E092
:101600000768AF430760F0BD2DE9F04786B0054697
:101610000E460024A24600BFA1460027B08900B1B3
:1016200000BF2F462C8A4CF6FF700440F08804431C
:101630002C82AC894EF6F3100440B08831890843FF
:10164000718908430443AC81AC8A4FF6FF400440E3
:10165000B0890443AC8201A8FFF7A6FB1F4887426C
:1016600002D1DDF810A001E0DDF80CA0A88900F49B
:10167000004040B10AEBCA0000EB0A103168490093
:10168000B0FBF1F807E00AEBCA0000EB0A10316882
:101690008900B0FBF1F86420B8FBF0F004012009E8
:1016A000642101FB1089A88900F4004040B1322078
:1016B00000EBC900B0FBF1F000F00700044308E0C4
:1016C000322000EB09106421B0FBF1F000F00F00B4
:1016D00004432C8106B0BDE8F087000000380140CB
:1016E00001468888C0F30800704700BFFEE700008D
:1016F00010B50446012C1AD120213848FEF74BFFC3
:1017000048B940F2DC50FFF77DFA35A201210846C6
:10171000FFF78AF961E0FFF74FF84FF4FA70FFF72F
:1017200071FA33A201210846FFF77EF955E0022C39
:101730001AD140212948FEF72EFF48B940F2DC506B
:10174000FFF760FA26A201210846FFF76DF944E091
:10175000FFF732F84FF4FA70FFF754FA24A2012190
:101760000846FFF761F938E0032C1AD180211B48A5
:10177000FEF711FF48B940F2DC50FFF743FA1EA212
:1017800001210846FFF750F927E0FFF715F84FF45D
:10179000FA70FFF737FA16A201210846FFF744F95D
:1017A0001BE0042C19D1A1010C48FEF7F4FE48B946
:1017B00040F2DC50FFF726FA12A201210846FFF79B
:1017C00033F90AE0FEF7F8FF4FF4FA70FFF71AFA60
:1017D00007A201210846FFF727F910BD00080140C4
:1017E000556E72656379636C61626C650000000020
:1017F000636C6F736500000048617A6172646F7595
:10180000730000004F74686572000000FFF7CAFBA8
:1018100006A201210846FFF707F9FFF743FC03E0A2
:10182000FEF712FDFFF72AFBFAE70000636C6F7307
:101830006500000000000000000000000000000043
:1018400000000000000000F800000000000000336D
:101850003000000000100C06100C06000000000014
:101860000000000040C07840C0784000043F0404FD
:101870003F040400007088FC08300000001820FFBE
:10188000211E0000F008F000E018000000211C03F9
:101890001E211E0000F00888700000001E21232475
:1018A0001927211010160E00000000000000000093
:1018B00000000000000000E0180402000000000723
:1018C0001820400000020418E0000000004020182A
:1018D00007000000404080F0804040000202010FFD
:1018E00001020200000000F0000000000101011FE1
:1018F00001010100000000000000000080B0700045
:1019000000000000000000000000000000010101D4
:101910000101010100000000000000000030300063
:10192000000000000000000080601804006018063D
:101930000100000000E010080810E000000F102077
:1019400020100F00001010F8000000000020203FC1
:10195000202000000070080808887000003028244B
:1019600022213000003008888848300000182020EC
:1019700020110E000000C02010F800000007042411
:10198000243F240000F80888880808000019212056
:1019900020110E0000E0108888180000000F1120B0
:1019A00020110E0000380808C83808000000003F69
:1019B000000000000070880808887000001C2221C8
:1019C00021221C0000E010080810E0000000312275
:1019D00022110F00000000C0C00000000000003015
:1019E0003000000000000080000000000000806067
:1019F00000000000000080402010080000010204E8
:101A000008102000404040404040400004040404CE
:101A1000040404000008102040800000002010088A
:101A200004020100007048080808F00000000030BF
:101A300036010000C030C828E810E000071827244D
:101A400023140B000000C038E0000000203C2302FB
:101A50000227382008F8888888700000203F20205E
:101A600020110E00C0300808080838000718202090
:101A70002010080008F808080810E000203F202087
:101A800020100F0008F88888E8081000203F202068
:101A90002320180008F88888E8081000203F20005C
:101AA00003000000C0300808083800000718202094
:101AB000221E020008F808000008F808203F210153
:101AC00001213F20000808F8080800000020203FFE
:101AD0002020000000000808F8080800C08080806E
:101AE0007F00000008F888C028180800203F200167
:101AF0002638200008F8080000000000203F2020C1
:101B00002020300008F8F800F8F80800203F003FD7
:101B1000003F200008F830C00008F808203F2000EF
:101B200007183F00E01008080810E0000F10202000
:101B300020100F0008F808080808F000203F2101D5
:101B400001010000E01008080810E0000F1824242C
:101B500038504F0008F8888888887000203F20009F
:101B6000030C302000708808080838000038202155
:101B700021221C00180808F8080818000000203F5F
:101B80002000000008F808000008F808001F2020C6
:101B900020201F000878880000C838080000073897
:101BA0000E010000F80800F80008F800033C0700E8
:101BB000073C0300081868808068180820302C0350
:101BC000032C30200838C800C83808000000203F27
:101BD0002000000010080808C83808002038262116
:101BE00020201800000000FE020202000000007F1A
:101BF00040404000000C30C0000000000000000128
:101C00000638C00000020202FE0000000040404012
:101C10007F00000000000402020204000000000037
:101C200000000000000000000000000080808080B4
:101C3000808080800002020400000000000000009C
:101C40000000000000008080808000000019242235
:101C500022223F2008F8008080000000003F112071
:101C600020110E000000008080800000000E112076
:101C700020201100000000808088F800000E112054
:101C800020103F200000808080800000001F222262
:101C900022221300008080F0888888180020203FCE
:101CA000202000000000808080808000006B9494E1
:101CB0009493600008F8008080800000203F21009D
:101CC00000203F2000809898000000000020203F66
:101CD00020200000000000809898000000C0808054
:101CE000807F000008F8000080808000203F2402F0
:101CF0002D302000000808F8000000000020203FE0
:101D0000202000008080808080808000203F200094
:101D10003F20003F8080008080800000203F210025
:101D200000203F200000808080800000001F2020D5
:101D300020201F00808000808000000080FFA12004
:101D400020110E000000008080808000000E112015
:101D500020A0FF80808080008080800020203F21A4
:101D60002000010000008080808080000033242457
:101D700024241900008080E0808000000000001F03
:101D8000202000008080000000808000001F2020B4
:101D900020103F20808080000080808000010E3075
:101DA0000806010080800080008080800F300C03D6
:101DB0000C300F0000808000808080000020312ED9
:101DC0000E312000808080000080808080818E70B5
:101DD0001806010000808080808080000021302C67
:101DE0002221300000000000807C02020000000080
:101DF000003F404000000000FF0000000000000025
:101E0000FF0000000002027C800000000040403F14
:101E100000000000000601010202040400000000AE
:101E200000000000441E0008000000201C0000000C
:101E300028010008601E00081C0000206406000045
:101E40004401000800000000010203040102030431
:101E50000607080902040608000000000000000050
:04000005080000ED02
:00000001FF
